{
  "contractName": "Avatar",
  "abi": [
    {
      "constant": true,
      "inputs": [],
      "name": "orgName",
      "outputs": [
        {
          "name": "",
          "type": "bytes32"
        }
      ],
      "payable": false,
      "stateMutability": "view",
      "type": "function"
    },
    {
      "constant": false,
      "inputs": [
        {
          "name": "_token",
          "type": "address"
        },
        {
          "name": "_value",
          "type": "uint256"
        }
      ],
      "name": "tokenDisapprove",
      "outputs": [
        {
          "name": "",
          "type": "bool"
        }
      ],
      "payable": false,
      "stateMutability": "nonpayable",
      "type": "function"
    },
    {
      "constant": false,
      "inputs": [
        {
          "name": "_action",
          "type": "address"
        },
        {
          "name": "_params",
          "type": "bytes32[]"
        }
      ],
      "name": "genericAction",
      "outputs": [
        {
          "name": "",
          "type": "bool"
        }
      ],
      "payable": false,
      "stateMutability": "nonpayable",
      "type": "function"
    },
    {
      "constant": false,
      "inputs": [
        {
          "name": "_externalToken",
          "type": "address"
        },
        {
          "name": "_spender",
          "type": "address"
        },
        {
          "name": "_value",
          "type": "uint256"
        }
      ],
      "name": "externalTokenApprove",
      "outputs": [
        {
          "name": "",
          "type": "bool"
        }
      ],
      "payable": false,
      "stateMutability": "nonpayable",
      "type": "function"
    },
    {
      "constant": true,
      "inputs": [],
      "name": "nativeReputation",
      "outputs": [
        {
          "name": "",
          "type": "address"
        }
      ],
      "payable": false,
      "stateMutability": "view",
      "type": "function"
    },
    {
      "constant": true,
      "inputs": [],
      "name": "owner",
      "outputs": [
        {
          "name": "",
          "type": "address"
        }
      ],
      "payable": false,
      "stateMutability": "view",
      "type": "function"
    },
    {
      "constant": false,
      "inputs": [
        {
          "name": "_externalToken",
          "type": "address"
        },
        {
          "name": "_from",
          "type": "address"
        },
        {
          "name": "_to",
          "type": "address"
        },
        {
          "name": "_value",
          "type": "uint256"
        }
      ],
      "name": "externalTokenTransferFrom",
      "outputs": [
        {
          "name": "",
          "type": "bool"
        }
      ],
      "payable": false,
      "stateMutability": "nonpayable",
      "type": "function"
    },
    {
      "constant": false,
      "inputs": [
        {
          "name": "_amountInWei",
          "type": "uint256"
        },
        {
          "name": "_to",
          "type": "address"
        }
      ],
      "name": "sendEther",
      "outputs": [
        {
          "name": "",
          "type": "bool"
        }
      ],
      "payable": false,
      "stateMutability": "nonpayable",
      "type": "function"
    },
    {
      "constant": false,
      "inputs": [
        {
          "name": "_externalToken",
          "type": "address"
        },
        {
          "name": "_to",
          "type": "address"
        },
        {
          "name": "_value",
          "type": "uint256"
        }
      ],
      "name": "externalTokenTransfer",
      "outputs": [
        {
          "name": "",
          "type": "bool"
        }
      ],
      "payable": false,
      "stateMutability": "nonpayable",
      "type": "function"
    },
    {
      "constant": true,
      "inputs": [],
      "name": "nativeToken",
      "outputs": [
        {
          "name": "",
          "type": "address"
        }
      ],
      "payable": false,
      "stateMutability": "view",
      "type": "function"
    },
    {
      "constant": false,
      "inputs": [
        {
          "name": "newOwner",
          "type": "address"
        }
      ],
      "name": "transferOwnership",
      "outputs": [],
      "payable": false,
      "stateMutability": "nonpayable",
      "type": "function"
    },
    {
      "inputs": [
        {
          "name": "_orgName",
          "type": "bytes32"
        },
        {
          "name": "_nativeToken",
          "type": "address"
        },
        {
          "name": "_nativeReputation",
          "type": "address"
        }
      ],
      "payable": false,
      "stateMutability": "nonpayable",
      "type": "constructor"
    },
    {
      "payable": true,
      "stateMutability": "payable",
      "type": "fallback"
    },
    {
      "anonymous": false,
      "inputs": [
        {
          "indexed": true,
          "name": "_action",
          "type": "address"
        },
        {
          "indexed": false,
          "name": "_params",
          "type": "bytes32[]"
        }
      ],
      "name": "GenericAction",
      "type": "event"
    },
    {
      "anonymous": false,
      "inputs": [
        {
          "indexed": false,
          "name": "_amountInWei",
          "type": "uint256"
        },
        {
          "indexed": true,
          "name": "_to",
          "type": "address"
        }
      ],
      "name": "SendEther",
      "type": "event"
    },
    {
      "anonymous": false,
      "inputs": [
        {
          "indexed": true,
          "name": "_externalToken",
          "type": "address"
        },
        {
          "indexed": true,
          "name": "_to",
          "type": "address"
        },
        {
          "indexed": false,
          "name": "_value",
          "type": "uint256"
        }
      ],
      "name": "ExternalTokenTransfer",
      "type": "event"
    },
    {
      "anonymous": false,
      "inputs": [
        {
          "indexed": true,
          "name": "_externalToken",
          "type": "address"
        },
        {
          "indexed": false,
          "name": "_from",
          "type": "address"
        },
        {
          "indexed": false,
          "name": "_to",
          "type": "address"
        },
        {
          "indexed": false,
          "name": "_value",
          "type": "uint256"
        }
      ],
      "name": "ExternalTokenTransferFrom",
      "type": "event"
    },
    {
      "anonymous": false,
      "inputs": [
        {
          "indexed": true,
          "name": "_externalToken",
          "type": "address"
        },
        {
          "indexed": false,
          "name": "_spender",
          "type": "address"
        },
        {
          "indexed": false,
          "name": "_value",
          "type": "uint256"
        }
      ],
      "name": "ExternalTokenApprove",
      "type": "event"
    },
    {
      "anonymous": false,
      "inputs": [
        {
          "indexed": false,
          "name": "_token",
          "type": "address"
        },
        {
          "indexed": false,
          "name": "_value",
          "type": "uint256"
        }
      ],
      "name": "TokenDisapprove",
      "type": "event"
    },
    {
      "anonymous": false,
      "inputs": [
        {
          "indexed": true,
          "name": "_sender",
          "type": "address"
        },
        {
          "indexed": false,
          "name": "_value",
          "type": "uint256"
        }
      ],
      "name": "ReceiveEther",
      "type": "event"
    }
  ],
  "bytecode": "0x6060604052341561000f57600080fd5b60405160608061097b83398101604052808051919060200180519190602001805160008054600160a060020a03338116600160a060020a03199283161790925560019690965560028054958216958716959095179094556003805494909116939094169290921790925550506108f18061008a6000396000f3006060604052600436106100955763ffffffff60e060020a6000350416631386dc2d81146100d45780633df4062e146100f95780636ce15a541461012f57806379c6ad9e1461018c57806389ae1c90146101b45780638da5cb5b146101e3578063b756d5a2146101f6578063cb16d4a214610224578063dab0efff14610246578063e1758bd81461026e578063f2fde38b14610281575b33600160a060020a03167ff32a9f77675fd5917534c7746608fd3e309eac68fbdcbf5925e24ca97a7043963460405190815260200160405180910390a2005b34156100df57600080fd5b6100e76102a2565b60405190815260200160405180910390f35b341561010457600080fd5b61011b600160a060020a03600435166024356102a8565b604051901515815260200160405180910390f35b341561013a57600080fd5b61011b60048035600160a060020a031690604460248035908101908301358060208082020160405190810160405280939291908181526020018383602002808284375094965061039795505050505050565b341561019757600080fd5b61011b600160a060020a03600435811690602435166044356104d7565b34156101bf57600080fd5b6101c76105c3565b604051600160a060020a03909116815260200160405180910390f35b34156101ee57600080fd5b6101c76105d2565b341561020157600080fd5b61011b600160a060020a03600435811690602435811690604435166064356105e1565b341561022f57600080fd5b61011b600435600160a060020a03602435166106e7565b341561025157600080fd5b61011b600160a060020a036004358116906024351660443561077a565b341561027957600080fd5b6101c7610860565b341561028c57600080fd5b6102a0600160a060020a036004351661086f565b005b60015481565b6000805433600160a060020a039081169116146102c457600080fd5b82600160a060020a03166323b872dd33338560006040516020015260405160e060020a63ffffffff8616028152600160a060020a0393841660048201529190921660248201526044810191909152606401602060405180830381600087803b151561032e57600080fd5b6102c65a03f1151561033f57600080fd5b50505060405180519050507fd23e88ecf1a38ccd3a7b62b200c5f7975695cab040e26939826be9dc15f573198383604051600160a060020a03909216825260208201526040908101905180910390a150600192915050565b6000805433600160a060020a039081169116146103b357600080fd5b82600160a060020a03167f8518530cc6bc186721ab2fc226031ca054c8484893d8b0c7faab65a58aac238d8360405160208082528190810183818151815260200191508051906020019060200280838360005b8381101561041e578082015183820152602001610406565b505050509050019250505060405180910390a282600160a060020a03166040517f616374696f6e2875696e743235365b5d290000000000000000000000000000008152601101604051809103902060e060020a9004836040518263ffffffff1660e060020a02815260040180828051906020019060200280838360005b838110156104b357808201518382015260200161049b565b505050509050019150506000604051808303818661646e5a03f49695505050505050565b6000805433600160a060020a039081169116146104f357600080fd5b83600160a060020a031663095ea7b3848460006040516020015260405160e060020a63ffffffff8516028152600160a060020a0390921660048301526024820152604401602060405180830381600087803b151561055057600080fd5b6102c65a03f1151561056157600080fd5b50505060405180515050600160a060020a0384167f15027ced8d0b6b382affbb51de0e1f48bb24ac55be01ca51537a5f9c4aeb35aa8484604051600160a060020a03909216825260208201526040908101905180910390a25060019392505050565b600354600160a060020a031681565b600054600160a060020a031681565b6000805433600160a060020a039081169116146105fd57600080fd5b84600160a060020a03166323b872dd85858560006040516020015260405160e060020a63ffffffff8616028152600160a060020a0393841660048201529190921660248201526044810191909152606401602060405180830381600087803b151561066757600080fd5b6102c65a03f1151561067857600080fd5b50505060405180515050600160a060020a0385167f179c15de44aa7ab84896301974328eb40b5b40fe01cfe0fee2924ea712c3e843858585604051600160a060020a039384168152919092166020820152604080820192909252606001905180910390a2506001949350505050565b6000805433600160a060020a0390811691161461070357600080fd5b600160a060020a03821683156108fc0284604051600060405180830381858888f19350505050151561073457600080fd5b81600160a060020a03167f22fca66666089f39bc900dd6605b489df4aae6260cc8ea8257594cfb8c84926c8460405190815260200160405180910390a250600192915050565b6000805433600160a060020a0390811691161461079657600080fd5b83600160a060020a031663a9059cbb848460006040516020015260405160e060020a63ffffffff8516028152600160a060020a0390921660048301526024820152604401602060405180830381600087803b15156107f357600080fd5b6102c65a03f1151561080457600080fd5b505050604051805190505082600160a060020a031684600160a060020a03167f49dc2a60d2599a7b6932d78fb694c30dfc596fe4e0282b5d0fd184b52472c04d8460405190815260200160405180910390a35060019392505050565b600254600160a060020a031681565b60005433600160a060020a0390811691161461088a57600080fd5b600160a060020a038116156108c2576000805473ffffffffffffffffffffffffffffffffffffffff1916600160a060020a0383161790555b505600a165627a7a723058202d34bad4d39e82f7abb63049df100f57c45d3cbbacb61cf06550c1532c2a310b0029",
  "source": "pragma solidity ^0.4.18;\n\nimport \"./Controller.sol\";\nimport \"./Reputation.sol\";\nimport \"./DAOToken.sol\";\nimport \"zeppelin-solidity/contracts/ownership/Ownable.sol\";\nimport \"zeppelin-solidity/contracts/token/StandardToken.sol\";\n\n\ncontract ActionInterface {\n    function action(bytes32[] _params) public returns(bool);\n}\n\n\n/**\n * @title An Avatar holds tokens, reputation and ether for a controller\n */\ncontract Avatar is Ownable {\n    bytes32 public orgName;\n    DAOToken public nativeToken;\n    Reputation public nativeReputation;\n\n    event GenericAction(address indexed _action, bytes32[] _params);\n    event SendEther(uint _amountInWei, address indexed _to);\n    event ExternalTokenTransfer(address indexed _externalToken, address indexed _to, uint _value);\n    event ExternalTokenTransferFrom(address indexed _externalToken, address _from, address _to, uint _value);\n    event ExternalTokenApprove(StandardToken indexed _externalToken, address _spender, uint _value);\n    event TokenDisapprove(address _token, uint _value);\n    event ReceiveEther(address indexed _sender, uint _value);\n\n    /**\n    * @dev the constructor takes organization name, native token and reputation system\n    and creates an avatar for a controller\n    */\n    function Avatar(bytes32 _orgName, DAOToken _nativeToken, Reputation _nativeReputation) public {\n        orgName = _orgName;\n        nativeToken = _nativeToken;\n        nativeReputation = _nativeReputation;\n    }\n\n    /**\n    * @dev ???\n    */\n    function genericAction(ActionInterface _action, bytes32[] _params)\n    public onlyOwner returns(bool)\n    {\n        GenericAction(_action, _params);\n        return _action.delegatecall(bytes4(keccak256(\"action(uint256[])\")), _params);\n    }\n\n    /**\n    * @dev send ethers from the avatar's wallet\n    * @param _amountInWei amount to send in Wei units\n    * @param _to send the ethers to this address\n    * @return bool which represents success\n    */\n    function sendEther(uint _amountInWei, address _to) public onlyOwner returns(bool) {\n        _to.transfer(_amountInWei);\n        SendEther(_amountInWei, _to);\n        return true;\n    }\n\n    function externalTokenTransfer(StandardToken _externalToken, address _to, uint _value)\n    public onlyOwner returns(bool)\n    {\n        _externalToken.transfer(_to, _value);\n        ExternalTokenTransfer(_externalToken, _to, _value);\n        return true;\n    }\n\n    function externalTokenTransferFrom(\n        StandardToken _externalToken,\n        address _from,\n        address _to,\n        uint _value\n    )\n    public onlyOwner returns(bool)\n    {\n        _externalToken.transferFrom(_from, _to, _value);\n        ExternalTokenTransferFrom(_externalToken, _from, _to, _value);\n        return true;\n    }\n\n    function externalTokenApprove(StandardToken _externalToken, address _spender, uint _value)\n    public onlyOwner returns(bool)\n    {\n        _externalToken.approve(_spender, _value);\n        ExternalTokenApprove(_externalToken, _spender, _value);\n        return true;\n    }\n\n    function tokenDisapprove(StandardToken _token, uint _value ) public onlyOwner returns(bool) {\n        _token.transferFrom(msg.sender,msg.sender, _value);\n        TokenDisapprove(_token, _value);\n        return true;\n    }\n\n    /**\n    * @dev enables an avatar to receive ethers\n    */\n    function() public payable {\n        ReceiveEther(msg.sender, msg.value);\n    }\n}\n",
  "sourcePath": "/Users/tibet/Dev/Emergence/daostack/contracts/controller/Avatar.sol",
  "compiler": {
    "name": "solc",
    "version": "0.4.18+commit.9cf6e910.Emscripten.clang"
  },
  "schemaVersion": "1.0.1",
  "updatedAt": "2017-12-08T01:15:38.671Z"
}