{
  "contractName": "Controller",
  "abi": [
    {
      "constant": false,
      "inputs": [
        {
          "name": "_amount",
          "type": "uint256"
        },
        {
          "name": "_beneficiary",
          "type": "address"
        }
      ],
      "name": "mintTokens",
      "outputs": [
        {
          "name": "",
          "type": "bool"
        }
      ],
      "payable": false,
      "stateMutability": "nonpayable",
      "type": "function"
    },
    {
      "constant": false,
      "inputs": [
        {
          "name": "_amount",
          "type": "int256"
        },
        {
          "name": "_beneficiary",
          "type": "address"
        }
      ],
      "name": "mintReputation",
      "outputs": [
        {
          "name": "",
          "type": "bool"
        }
      ],
      "payable": false,
      "stateMutability": "nonpayable",
      "type": "function"
    },
    {
      "constant": true,
      "inputs": [],
      "name": "newController",
      "outputs": [
        {
          "name": "",
          "type": "address"
        }
      ],
      "payable": false,
      "stateMutability": "view",
      "type": "function"
    },
    {
      "constant": false,
      "inputs": [
        {
          "name": "_globalConstraint",
          "type": "address"
        },
        {
          "name": "_params",
          "type": "bytes32"
        }
      ],
      "name": "addGlobalConstraint",
      "outputs": [
        {
          "name": "",
          "type": "bool"
        }
      ],
      "payable": false,
      "stateMutability": "nonpayable",
      "type": "function"
    },
    {
      "constant": true,
      "inputs": [
        {
          "name": "_scheme",
          "type": "address"
        }
      ],
      "name": "getSchemeParameters",
      "outputs": [
        {
          "name": "",
          "type": "bytes32"
        }
      ],
      "payable": false,
      "stateMutability": "view",
      "type": "function"
    },
    {
      "constant": false,
      "inputs": [
        {
          "name": "_globalConstraint",
          "type": "address"
        }
      ],
      "name": "removeGlobalConstraint",
      "outputs": [
        {
          "name": "",
          "type": "bool"
        }
      ],
      "payable": false,
      "stateMutability": "nonpayable",
      "type": "function"
    },
    {
      "constant": true,
      "inputs": [],
      "name": "version",
      "outputs": [
        {
          "name": "",
          "type": "string"
        }
      ],
      "payable": false,
      "stateMutability": "view",
      "type": "function"
    },
    {
      "constant": true,
      "inputs": [],
      "name": "avatar",
      "outputs": [
        {
          "name": "",
          "type": "address"
        }
      ],
      "payable": false,
      "stateMutability": "view",
      "type": "function"
    },
    {
      "constant": false,
      "inputs": [
        {
          "name": "_scheme",
          "type": "address"
        }
      ],
      "name": "unregisterScheme",
      "outputs": [
        {
          "name": "",
          "type": "bool"
        }
      ],
      "payable": false,
      "stateMutability": "nonpayable",
      "type": "function"
    },
    {
      "constant": true,
      "inputs": [
        {
          "name": "",
          "type": "uint256"
        }
      ],
      "name": "globalConstraints",
      "outputs": [
        {
          "name": "gcAddress",
          "type": "address"
        },
        {
          "name": "params",
          "type": "bytes32"
        }
      ],
      "payable": false,
      "stateMutability": "view",
      "type": "function"
    },
    {
      "constant": false,
      "inputs": [],
      "name": "unregisterSelf",
      "outputs": [
        {
          "name": "",
          "type": "bool"
        }
      ],
      "payable": false,
      "stateMutability": "nonpayable",
      "type": "function"
    },
    {
      "constant": false,
      "inputs": [
        {
          "name": "_action",
          "type": "address"
        },
        {
          "name": "_params",
          "type": "bytes32[]"
        }
      ],
      "name": "genericAction",
      "outputs": [
        {
          "name": "",
          "type": "bool"
        }
      ],
      "payable": false,
      "stateMutability": "nonpayable",
      "type": "function"
    },
    {
      "constant": false,
      "inputs": [
        {
          "name": "_externalToken",
          "type": "address"
        },
        {
          "name": "_spender",
          "type": "address"
        },
        {
          "name": "_value",
          "type": "uint256"
        }
      ],
      "name": "externalTokenApprove",
      "outputs": [
        {
          "name": "",
          "type": "bool"
        }
      ],
      "payable": false,
      "stateMutability": "nonpayable",
      "type": "function"
    },
    {
      "constant": true,
      "inputs": [
        {
          "name": "_scheme",
          "type": "address"
        }
      ],
      "name": "isSchemeRegistered",
      "outputs": [
        {
          "name": "",
          "type": "bool"
        }
      ],
      "payable": false,
      "stateMutability": "view",
      "type": "function"
    },
    {
      "constant": true,
      "inputs": [],
      "name": "nativeReputation",
      "outputs": [
        {
          "name": "",
          "type": "address"
        }
      ],
      "payable": false,
      "stateMutability": "view",
      "type": "function"
    },
    {
      "constant": true,
      "inputs": [
        {
          "name": "_scheme",
          "type": "address"
        }
      ],
      "name": "getSchemePermissions",
      "outputs": [
        {
          "name": "",
          "type": "bytes4"
        }
      ],
      "payable": false,
      "stateMutability": "view",
      "type": "function"
    },
    {
      "constant": false,
      "inputs": [
        {
          "name": "_scheme",
          "type": "address"
        },
        {
          "name": "_paramsHash",
          "type": "bytes32"
        },
        {
          "name": "_permissions",
          "type": "bytes4"
        }
      ],
      "name": "registerScheme",
      "outputs": [
        {
          "name": "",
          "type": "bool"
        }
      ],
      "payable": false,
      "stateMutability": "nonpayable",
      "type": "function"
    },
    {
      "constant": false,
      "inputs": [
        {
          "name": "_externalToken",
          "type": "address"
        },
        {
          "name": "_from",
          "type": "address"
        },
        {
          "name": "_to",
          "type": "address"
        },
        {
          "name": "_value",
          "type": "uint256"
        }
      ],
      "name": "externalTokenTransferFrom",
      "outputs": [
        {
          "name": "",
          "type": "bool"
        }
      ],
      "payable": false,
      "stateMutability": "nonpayable",
      "type": "function"
    },
    {
      "constant": false,
      "inputs": [
        {
          "name": "_newController",
          "type": "address"
        }
      ],
      "name": "upgradeController",
      "outputs": [
        {
          "name": "",
          "type": "bool"
        }
      ],
      "payable": false,
      "stateMutability": "nonpayable",
      "type": "function"
    },
    {
      "constant": false,
      "inputs": [
        {
          "name": "_amountInWei",
          "type": "uint256"
        },
        {
          "name": "_to",
          "type": "address"
        }
      ],
      "name": "sendEther",
      "outputs": [
        {
          "name": "",
          "type": "bool"
        }
      ],
      "payable": false,
      "stateMutability": "nonpayable",
      "type": "function"
    },
    {
      "constant": true,
      "inputs": [],
      "name": "globalConstraintsCount",
      "outputs": [
        {
          "name": "",
          "type": "uint256"
        }
      ],
      "payable": false,
      "stateMutability": "view",
      "type": "function"
    },
    {
      "constant": false,
      "inputs": [
        {
          "name": "_externalToken",
          "type": "address"
        },
        {
          "name": "_to",
          "type": "address"
        },
        {
          "name": "_value",
          "type": "uint256"
        }
      ],
      "name": "externalTokenTransfer",
      "outputs": [
        {
          "name": "",
          "type": "bool"
        }
      ],
      "payable": false,
      "stateMutability": "nonpayable",
      "type": "function"
    },
    {
      "constant": true,
      "inputs": [
        {
          "name": "",
          "type": "address"
        }
      ],
      "name": "schemes",
      "outputs": [
        {
          "name": "paramsHash",
          "type": "bytes32"
        },
        {
          "name": "permissions",
          "type": "bytes4"
        }
      ],
      "payable": false,
      "stateMutability": "view",
      "type": "function"
    },
    {
      "constant": true,
      "inputs": [],
      "name": "nativeToken",
      "outputs": [
        {
          "name": "",
          "type": "address"
        }
      ],
      "payable": false,
      "stateMutability": "view",
      "type": "function"
    },
    {
      "inputs": [
        {
          "name": "_avatar",
          "type": "address"
        },
        {
          "name": "_nativeToken",
          "type": "address"
        },
        {
          "name": "_nativeReputation",
          "type": "address"
        },
        {
          "name": "_schemes",
          "type": "address[]"
        },
        {
          "name": "_params",
          "type": "bytes32[]"
        },
        {
          "name": "_permissions",
          "type": "bytes4[]"
        }
      ],
      "payable": false,
      "stateMutability": "nonpayable",
      "type": "constructor"
    },
    {
      "payable": false,
      "stateMutability": "nonpayable",
      "type": "fallback"
    },
    {
      "anonymous": false,
      "inputs": [
        {
          "indexed": true,
          "name": "_sender",
          "type": "address"
        },
        {
          "indexed": true,
          "name": "_beneficiary",
          "type": "address"
        },
        {
          "indexed": false,
          "name": "_amount",
          "type": "int256"
        }
      ],
      "name": "MintReputation",
      "type": "event"
    },
    {
      "anonymous": false,
      "inputs": [
        {
          "indexed": true,
          "name": "_sender",
          "type": "address"
        },
        {
          "indexed": true,
          "name": "_beneficiary",
          "type": "address"
        },
        {
          "indexed": false,
          "name": "_amount",
          "type": "uint256"
        }
      ],
      "name": "MintTokens",
      "type": "event"
    },
    {
      "anonymous": false,
      "inputs": [
        {
          "indexed": true,
          "name": "_sender",
          "type": "address"
        },
        {
          "indexed": true,
          "name": "_scheme",
          "type": "address"
        }
      ],
      "name": "RegisterScheme",
      "type": "event"
    },
    {
      "anonymous": false,
      "inputs": [
        {
          "indexed": true,
          "name": "_sender",
          "type": "address"
        },
        {
          "indexed": true,
          "name": "_scheme",
          "type": "address"
        }
      ],
      "name": "UnregisterScheme",
      "type": "event"
    },
    {
      "anonymous": false,
      "inputs": [
        {
          "indexed": true,
          "name": "_sender",
          "type": "address"
        },
        {
          "indexed": true,
          "name": "_action",
          "type": "address"
        },
        {
          "indexed": false,
          "name": "_params",
          "type": "bytes32[]"
        }
      ],
      "name": "GenericAction",
      "type": "event"
    },
    {
      "anonymous": false,
      "inputs": [
        {
          "indexed": true,
          "name": "_sender",
          "type": "address"
        },
        {
          "indexed": false,
          "name": "_amountInWei",
          "type": "uint256"
        },
        {
          "indexed": true,
          "name": "_to",
          "type": "address"
        }
      ],
      "name": "SendEther",
      "type": "event"
    },
    {
      "anonymous": false,
      "inputs": [
        {
          "indexed": true,
          "name": "_sender",
          "type": "address"
        },
        {
          "indexed": true,
          "name": "_externalToken",
          "type": "address"
        },
        {
          "indexed": true,
          "name": "_to",
          "type": "address"
        },
        {
          "indexed": false,
          "name": "_value",
          "type": "uint256"
        }
      ],
      "name": "ExternalTokenTransfer",
      "type": "event"
    },
    {
      "anonymous": false,
      "inputs": [
        {
          "indexed": true,
          "name": "_sender",
          "type": "address"
        },
        {
          "indexed": true,
          "name": "_externalToken",
          "type": "address"
        },
        {
          "indexed": false,
          "name": "_from",
          "type": "address"
        },
        {
          "indexed": false,
          "name": "_to",
          "type": "address"
        },
        {
          "indexed": false,
          "name": "_value",
          "type": "uint256"
        }
      ],
      "name": "ExternalTokenTransferFrom",
      "type": "event"
    },
    {
      "anonymous": false,
      "inputs": [
        {
          "indexed": true,
          "name": "_sender",
          "type": "address"
        },
        {
          "indexed": true,
          "name": "_externalToken",
          "type": "address"
        },
        {
          "indexed": false,
          "name": "_spender",
          "type": "address"
        },
        {
          "indexed": false,
          "name": "_value",
          "type": "uint256"
        }
      ],
      "name": "ExternalTokenApprove",
      "type": "event"
    },
    {
      "anonymous": false,
      "inputs": [
        {
          "indexed": false,
          "name": "_globalconstraint",
          "type": "address"
        },
        {
          "indexed": false,
          "name": "_params",
          "type": "bytes32"
        }
      ],
      "name": "LogAddGlobalConstraint",
      "type": "event"
    }
  ],
  "bytecode": "0x6060604052341561000f57600080fd5b6040516118af3803806118af8339810160405280805191906020018051919060200180519190602001805182019190602001805182019190602001805160018054600160a060020a03808b16600160a060020a031992831617909255600280548a84169083161790556003805492891692909116919091179055909101905060005b83518110156101bb578281815181106100a657fe5b906020019060200201516000808684815181106100bf57fe5b90602001906020020151600160a060020a031681526020810191909152604001600020558181815181106100ef57fe5b9060200190602002015160008086848151811061010857fe5b90602001906020020151600160a060020a031681526020810191909152604001600020600101805463ffffffff19167c010000000000000000000000000000000000000000000000000000000090920491909117905583818151811061016a57fe5b90602001906020020151600160a060020a031633600160a060020a03167f546816e99403df442acb68ef69562682a50762c20a3fb6b472f7af9923736cfc60405160405180910390a3600101610091565b505050505050506116de806101d16000396000f3006060604052600436106101245763ffffffff60e060020a60003504166310c5b328811461013457806318e236e41461016a5780633a02263c1461018c57806346a4869c146101bb57806346e361b7146101dd578063488b38141461020e57806354fd4d501461022d5780635aef7de6146102b7578063653915e5146102ca57806365ab1ae8146102e95780636bafaa59146103215780636ce15a541461033457806379c6ad9e1461039157806381d064c4146103b957806389ae1c90146103d85780639fe02726146103eb578063a34abaa814610427578063b756d5a214610456578063b9c2ee8214610484578063cb16d4a2146104a3578063d5210f60146104c5578063dab0efff146104d8578063db6149ce14610500578063e1758bd814610541575b341561012f57600080fd5b600080fd5b341561013f57600080fd5b610156600435600160a060020a0360243516610554565b604051901515815260200160405180910390f35b341561017557600080fd5b610156600435600160a060020a0360243516610674565b341561019757600080fd5b61019f610772565b604051600160a060020a03909116815260200160405180910390f35b34156101c657600080fd5b610156600160a060020a0360043516602435610781565b34156101e857600080fd5b6101fc600160a060020a0360043516610893565b60405190815260200160405180910390f35b341561021957600080fd5b610156600160a060020a03600435166108ae565b341561023857600080fd5b6102406109a7565b60405160208082528190810183818151815260200191508051906020019080838360005b8381101561027c578082015183820152602001610264565b50505050905090810190601f1680156102a95780820380516001836020036101000a031916815260200191505b509250505060405180910390f35b34156102c257600080fd5b61019f6109de565b34156102d557600080fd5b610156600160a060020a03600435166109ed565b34156102f457600080fd5b6102ff600435610b2a565b604051600160a060020a03909216825260208201526040908101905180910390f35b341561032c57600080fd5b610156610b60565b341561033f57600080fd5b61015660048035600160a060020a0316906044602480359081019083013580602080820201604051908101604052809392919081815260200183836020028082843750949650610bc195505050505050565b341561039c57600080fd5b610156600160a060020a0360043581169060243516604435610d4c565b34156103c457600080fd5b610156600160a060020a0360043516610e8b565b34156103e357600080fd5b61019f610ebb565b34156103f657600080fd5b61040a600160a060020a0360043516610eca565b604051600160e060020a0319909116815260200160405180910390f35b341561043257600080fd5b610156600160a060020a0360043516602435600160e060020a031960443516610eee565b341561046157600080fd5b610156600160a060020a03600435811690602435811690604435166064356110c0565b341561048f57600080fd5b610156600160a060020a0360043516611213565b34156104ae57600080fd5b610156600435600160a060020a03602435166113e6565b34156104d057600080fd5b6101fc6114e5565b34156104e357600080fd5b610156600160a060020a03600435811690602435166044356114eb565b341561050b57600080fd5b61051f600160a060020a0360043516611600565b604051918252600160e060020a03191660208201526040908101905180910390f35b341561054c57600080fd5b61019f61161f565b600160a060020a03331660009081526020819052604081206001015460e060020a02600160e060020a031916151561058b57600080fd5b7f6d696e74546f6b656e730000000000000000000000000000000000000000000082600160a060020a031633600160a060020a03167f21f9c9a1a1f9a311a50f15fec5c1faa9e21fc9edf964f0fdecba5bd490484c5e8660405190815260200160405180910390a3600254600160a060020a03166340c10f19848660006040516020015260405160e060020a63ffffffff8516028152600160a060020a0390921660048301526024820152604401602060405180830381600087803b151561065257600080fd5b6102c65a03f1151561066357600080fd5b505050604051805195945050505050565b600160a060020a03331660009081526020819052604081206001015460e060020a02600160e060020a03191615156106ab57600080fd5b7f6d696e7452657075746174696f6e00000000000000000000000000000000000082600160a060020a031633600160a060020a03167fb6ced7e295ffd06d19f45bd872b3bd3fd172b1ba53b17ce0543c276d06f5a4228660405190815260200160405180910390a3600354600160a060020a031663fd9bf3aa848660006040516020015260405160e060020a63ffffffff8516028152600160a060020a0390921660048301526024820152604401602060405180830381600087803b151561065257600080fd5b600454600160a060020a031681565b600061078b61162e565b600160a060020a03331660009081526020819052604090206001015460e060020a027c0400000000000000000000000000000000000000000000000000000000908116146107d857600080fd5b600160a060020a03841681526020810183905260058054600181016107fd8382611645565b600092835260209092208391600202018151815473ffffffffffffffffffffffffffffffffffffffff1916600160a060020a03919091161781556020820151600190910155507f8fdb69e6f496c598f5c3e04a02081a6f5ab0096b70a94a75b6b6c61b1fe4c9f890508484604051600160a060020a03909216825260208201526040908101905180910390a15060019392505050565b600160a060020a031660009081526020819052604090205490565b600160a060020a033316600090815260208190526040812060010154819060e060020a027c0400000000000000000000000000000000000000000000000000000000908116146108fd57600080fd5b5060005b6005548110156109a15782600160a060020a031660058281548110151561092457fe5b6000918252602090912060029091020154600160a060020a0316141561099957600060058281548110151561095557fe5b60009182526020909120600290910201805473ffffffffffffffffffffffffffffffffffffffff1916600160a060020a0392909216919091179055600191506109a1565b600101610901565b50919050565b60408051908101604052600581527f302e302e31000000000000000000000000000000000000000000000000000000602082015281565b600154600160a060020a031681565b600160a060020a03331660009081526020819052604081206001015460e060020a027c020000000000000000000000000000000000000000000000000000000090811614610a3a57600080fd5b33600160a060020a039081166000908152602081905260408082206001908101549386168352912001547f756e7265676973746572536368656d65000000000000000000000000000000009160e060020a908102199102167c0f000000000000000000000000000000000000000000000000000000001615610abb57600080fd5b82600160a060020a031633600160a060020a03167f10bb2cf04cb8b902a8e736d494f1a51003be6d4b16ef6fb95ce62c38445023bf60405160405180910390a35050600160a060020a031660009081526020819052604081209081556001908101805463ffffffff1916905590565b6005805482908110610b3857fe5b600091825260209091206002909102018054600190910154600160a060020a03909116915082565b600160a060020a033316600081815260208190526040808220828155600101805463ffffffff1916905590919081907f10bb2cf04cb8b902a8e736d494f1a51003be6d4b16ef6fb95ce62c38445023bf905160405180910390a35060015b90565b600160a060020a03331660009081526020819052604081206001015460e060020a02600160e060020a0319161515610bf857600080fd5b7f67656e65726963416374696f6e0000000000000000000000000000000000000083600160a060020a031633600160a060020a03167fa780f470f73c5b728f451407660985d55be1b49386ec1a65a0b20d09f12d32468560405160208082528190810183818151815260200191508051906020019060200280838360005b83811015610c8e578082015183820152602001610c76565b505050509050019250505060405180910390a3600154600160a060020a0316636ce15a5485856000604051602001526040518363ffffffff1660e060020a0281526004018083600160a060020a0316600160a060020a0316815260200180602001828103825283818151815260200191508051906020019060200280838360005b83811015610d27578082015183820152602001610d0f565b505050509050019350505050602060405180830381600087803b151561065257600080fd5b600160a060020a03331660009081526020819052604081206001015460e060020a02600160e060020a0319161515610d8357600080fd5b7f65787465726e616c546f6b656e417070726f766500000000000000000000000084600160a060020a031633600160a060020a03167f5cda63dee3dca234a7ff99530838d4375718e5a398a4879f89119d92921fc6938686604051600160a060020a03909216825260208201526040908101905180910390a3600154600160a060020a03166379c6ad9e86868660006040516020015260405160e060020a63ffffffff8616028152600160a060020a0393841660048201529190921660248201526044810191909152606401602060405180830381600087803b1515610e6857600080fd5b6102c65a03f11515610e7957600080fd5b50505060405180519695505050505050565b600160a060020a031660009081526020819052604090206001015460e060020a02600160e060020a031916151590565b600354600160a060020a031681565b600160a060020a031660009081526020819052604090206001015460e060020a0290565b6000610ef861162e565b600160a060020a03331660009081526020819052604090206001015460e060020a027c020000000000000000000000000000000000000000000000000000000090811614610f4557600080fd5b600160a060020a038516600090815260208190526040908190207f7265676973746572536368656d65000000000000000000000000000000000000918051908101604090815282548252600192830154600160e060020a031960e060020a918202166020808501918252600160a060020a03331660009081529081905292832090940154929550909291021990518618167c0f000000000000000000000000000000000000000000000000000000001614610fff57600080fd5b600160a060020a03331660009081526020818152604082206001015460e060020a021990840151167c0f00000000000000000000000000000000000000000000000000000000161461105057600080fd5b600160a060020a0386811660008181526020819052604090819020888155600101805463ffffffff191660e060020a890417905590913316907f546816e99403df442acb68ef69562682a50762c20a3fb6b472f7af9923736cfc905160405180910390a350600195945050505050565b600160a060020a03331660009081526020819052604081206001015460e060020a02600160e060020a03191615156110f757600080fd5b7f65787465726e616c546f6b656e5472616e7366657246726f6d0000000000000085600160a060020a031633600160a060020a03167f283faba4b8dcfe263728666be500623fdf5ae89ac78e40952fe2493f918ed62c878787604051600160a060020a039384168152919092166020820152604080820192909252606001905180910390a3600154600160a060020a031663b756d5a28787878760006040516020015260405160e060020a63ffffffff8716028152600160a060020a0394851660048201529284166024840152921660448201526064810191909152608401602060405180830381600087803b15156111ef57600080fd5b6102c65a03f1151561120057600080fd5b5050506040518051979650505050505050565b600160a060020a03331660009081526020819052604081206001015460e060020a027c08000000000000000000000000000000000000000000000000000000009081161461126057600080fd5b600454600160a060020a03161561127657600080fd5b600160a060020a038216151561128b57600080fd5b6004805473ffffffffffffffffffffffffffffffffffffffff1916600160a060020a03848116919091179091556001541663f2fde38b8360405160e060020a63ffffffff8416028152600160a060020a039091166004820152602401600060405180830381600087803b151561130057600080fd5b6102c65a03f1151561131157600080fd5b5050600254600160a060020a0316905063f2fde38b8360405160e060020a63ffffffff8416028152600160a060020a039091166004820152602401600060405180830381600087803b151561136557600080fd5b6102c65a03f1151561137657600080fd5b5050600354600160a060020a0316905063f2fde38b8360405160e060020a63ffffffff8416028152600160a060020a039091166004820152602401600060405180830381600087803b15156113ca57600080fd5b6102c65a03f115156113db57600080fd5b506001949350505050565b600160a060020a03331660009081526020819052604081206001015460e060020a02600160e060020a031916151561141d57600080fd5b7f73656e644574686572000000000000000000000000000000000000000000000082600160a060020a031633600160a060020a03167fda35e091786fbaaace32084910404a0e3a14f22a7645a4c3d0fec2c6731e3c348660405190815260200160405180910390a3600154600160a060020a031663cb16d4a2858560006040516020015260405160e060020a63ffffffff85160281526004810192909252600160a060020a03166024820152604401602060405180830381600087803b151561065257600080fd5b60055490565b600160a060020a03331660009081526020819052604081206001015460e060020a02600160e060020a031916151561152257600080fd5b7f65787465726e616c546f6b656e5472616e73666572000000000000000000000083600160a060020a031685600160a060020a031633600160a060020a03167fd4c08afec48fd2cbe49032dc89d3b388b7a4e4f0563a1fdccd73339beb025aa18660405190815260200160405180910390a4600154600160a060020a031663dab0efff86868660006040516020015260405160e060020a63ffffffff8616028152600160a060020a0393841660048201529190921660248201526044810191909152606401602060405180830381600087803b1515610e6857600080fd5b6000602081905290815260409020805460019091015460e060020a0282565b600254600160a060020a031681565b604080519081016040526000808252602082015290565b815481835581811511611671576002028160020283600052602060002091820191016116719190611676565b505050565b610bbe91905b808211156116ae57805473ffffffffffffffffffffffffffffffffffffffff191681556000600182015560020161167c565b50905600a165627a7a72305820bb508ce9ce6f010488f1d2be970c86f3b8f576cc6908dab4e397efc8db2c26210029",
  "source": "pragma solidity ^0.4.18;\n\nimport \"./Avatar.sol\";\nimport \"./Reputation.sol\";\nimport \"./DAOToken.sol\";\nimport \"../globalConstraints/GlobalConstraintInterface.sol\";\n\n\n/**\n * @title Controller contract\n * @dev A controller controls its own and other tokens, and is piloted by a reputation\n * system. It is subject to a number of constraints that determine its behavior\n */\ncontract Controller {\n\n  string constant public version = \"0.0.1\";\n\n  struct Scheme {\n    bytes32 paramsHash; // a hash \"configuration\" of the scheme\n    bytes4 permissions; // A bitwise flags of permissions,\n                        // All 0: Not registered,\n                        // 1st bit: Flag if the scheme is registered,\n                        // 2nd bit: Scheme can register other schemes\n                        // 3th bit: Scheme can add/remove global constraints\n                        // 4rd bit: Scheme can upgrade the controller\n  }\n\n  struct GlobalConstraint {\n    address gcAddress;\n    bytes32 params;\n  }\n\n  mapping(address=>Scheme) public schemes;\n\n  Avatar public avatar;\n  DAOToken public nativeToken;\n  Reputation public nativeReputation;\n  // newController will point to the new controller after the present controller is upgraded\n  address public newController;\n  // globalConstraints that determine pre- and post-conditions for all actions on the controller\n  GlobalConstraint[] public globalConstraints;\n  /*address[] public globalConstraints;\n  bytes32[] public globalConstraintsParams;*/\n\n  event MintReputation (address indexed _sender, address indexed _beneficiary, int256 _amount);\n  event MintTokens (address indexed _sender, address indexed _beneficiary, uint256 _amount);\n  event RegisterScheme (address indexed _sender, address indexed _scheme);\n  event UnregisterScheme (address indexed _sender, address indexed _scheme);\n  event GenericAction (address indexed _sender, address indexed _action, bytes32[] _params);\n  event SendEther (address indexed _sender, uint _amountInWei, address indexed _to);\n  event ExternalTokenTransfer (address indexed _sender, address indexed _externalToken, address indexed _to, uint _value);\n  event ExternalTokenTransferFrom (address indexed _sender, address indexed _externalToken, address _from, address _to, uint _value);\n  event ExternalTokenApprove (address indexed _sender, StandardToken indexed _externalToken, address _spender, uint _value);\n  event LogAddGlobalConstraint(address _globalconstraint, bytes32 _params);\n\n  // TODO: This is a good constructor only for new organizations, need an improved one to support upgrade.\n  function Controller(\n    Avatar _avatar,\n    DAOToken _nativeToken,\n    Reputation    _nativeReputation,\n    address[] _schemes,\n    bytes32[] _params,\n    bytes4[] _permissions\n  ) public\n  {\n    avatar = _avatar;\n    nativeToken = _nativeToken;\n    nativeReputation = _nativeReputation;\n\n    // Register the schemes:\n    for (uint i = 0; i < _schemes.length; i++) {\n      schemes[_schemes[i]].paramsHash = _params[i];\n      schemes[_schemes[i]].permissions = _permissions[i];\n      RegisterScheme(msg.sender, _schemes[i]);\n    }\n  }\n\n  // Modifiers:\n  modifier onlyRegisteredScheme() {\n    require(schemes[msg.sender].permissions != bytes4(0));\n    _;\n  }\n\n  modifier onlyRegisteringSchemes() {\n    /*require(uint(schemes[msg.sender].permissions) > 1);*/\n    require(schemes[msg.sender].permissions&bytes4(2) == bytes4(2));\n    _;\n  }\n\n  modifier onlyGlobalConstraintsScheme() {\n    require(schemes[msg.sender].permissions&bytes4(4) == bytes4(4));\n    _;\n  }\n\n  modifier onlyUpgradingScheme() {\n    require(schemes[msg.sender].permissions&bytes4(8) == bytes4(8));\n    _;\n  }\n\n  // TODO: XXX: Constraints are commented due to gas issues, must fix.\n  modifier onlySubjectToConstraint(bytes32 func) {\n    /*for (uint cnt=0; cnt<globalConstraints.length; cnt++) {\n      if (globalConstraints[cnt].gcAddress != address(0))\n      require( (GlobalConstraintInterface(globalConstraints[cnt].gcAddress)).pre(msg.sender, globalConstraints[cnt].params, func) );\n    }*/\n    _;\n    /*for (uint cnt=0; cnt<globalConstraints.length; cnt++) {\n      if (globalConstraints[cnt].gcAddress != address(0))\n      require( (GlobalConstraintInterface(globalConstraints[cnt].gcAddress)).post(msg.sender, globalConstraints[cnt].params, func) );\n    }*/\n  }\n\n  // Minting:\n  function mintReputation(int256 _amount, address _beneficiary)\n    public\n    onlyRegisteredScheme\n    onlySubjectToConstraint(\"mintReputation\")\n    returns(bool)\n    {\n    MintReputation(msg.sender, _beneficiary, _amount);\n    return nativeReputation.mint(_beneficiary, _amount);\n  }\n\n  function mintTokens(uint256 _amount, address _beneficiary)\n    public\n    onlyRegisteredScheme\n    onlySubjectToConstraint(\"mintTokens\")\n    returns(bool)\n  {\n    MintTokens(msg.sender, _beneficiary, _amount);\n    return nativeToken.mint(_beneficiary, _amount);\n  }\n\n  /**\n   * @dev register a scheme\n   * @param _scheme the address of the scheme\n   * @param _paramsHash a hashed configuration of the usage of the scheme\n   * @param _permissions the permissions the new scheme will have\n   */\n  function registerScheme(address _scheme, bytes32 _paramsHash, bytes4 _permissions)\n    public\n    onlyRegisteringSchemes\n    onlySubjectToConstraint(\"registerScheme\")\n    returns(bool)\n  {\n\n    Scheme memory scheme = schemes[_scheme];\n\n    // Check scheme has at least the permissions it is changing, and at least the current permissions:\n    // Implementation is a bit messy. One must recall logic-circuits ^^\n    require(bytes4(15)&(_permissions^scheme.permissions)&(~schemes[msg.sender].permissions) == bytes4(0));\n    require(bytes4(15)&(scheme.permissions&(~schemes[msg.sender].permissions)) == bytes4(0));\n\n    // Add or change the scheme:\n    schemes[_scheme].paramsHash = _paramsHash;\n    schemes[_scheme].permissions = _permissions;\n    RegisterScheme(msg.sender, _scheme);\n    return true;\n  }\n\n  function unregisterScheme( address _scheme )\n    public\n    onlyRegisteringSchemes\n    onlySubjectToConstraint(\"unregisterScheme\")\n    returns(bool)\n  {\n    // Check the unregistering scheme has enough permissions:\n    require(bytes4(15)&(schemes[_scheme].permissions&(~schemes[msg.sender].permissions)) == bytes4(0));\n\n    // Unregister:\n    UnregisterScheme(msg.sender, _scheme);\n    delete schemes[_scheme];\n    return true;\n  }\n\n  function unregisterSelf() public returns(bool) {\n    delete schemes[msg.sender];\n    UnregisterScheme(msg.sender, msg.sender);\n    return true;\n  }\n\n  function isSchemeRegistered(address _scheme) public constant returns(bool) {\n    return (schemes[_scheme].permissions != 0);\n  }\n\n  function getSchemeParameters(address _scheme) public constant returns(bytes32) {\n    return schemes[_scheme].paramsHash;\n  }\n\n  function getSchemePermissions(address _scheme) public constant returns(bytes4) {\n    return schemes[_scheme].permissions;\n  }\n\n  // Global Contraints:\n  function globalConstraintsCount() public constant returns(uint) {\n    return globalConstraints.length;\n  }\n\n  function addGlobalConstraint(address _globalConstraint, bytes32 _params)\n    public onlyGlobalConstraintsScheme returns(bool)\n  {\n    GlobalConstraint memory gc;\n    gc.gcAddress = _globalConstraint;\n    gc.params = _params;\n    globalConstraints.push(gc);\n    LogAddGlobalConstraint(_globalConstraint, _params);\n    return true;\n  }\n\n  function removeGlobalConstraint (address _globalConstraint)\n    public onlyGlobalConstraintsScheme returns(bool)\n  {\n    for (uint cnt=0; cnt<globalConstraints.length; cnt++) {\n      if (globalConstraints[cnt].gcAddress == _globalConstraint) {\n        globalConstraints[cnt].gcAddress = address(0);\n        return true;\n      }\n    }\n  }\n\n  // Upgrading:\n  function upgradeController(address _newController)\n    public onlyUpgradingScheme returns(bool)\n  {\n    require(newController == address(0));   // Do we want this?\n    require(_newController != address(0));\n    newController = _newController;\n    avatar.transferOwnership(_newController);\n    nativeToken.transferOwnership(_newController);\n    nativeReputation.transferOwnership(_newController);\n    return true;\n  }\n\n  // External actions:\n  function genericAction(ActionInterface _action, bytes32[] _params)\n    public\n    onlyRegisteredScheme\n    onlySubjectToConstraint(\"genericAction\")\n    returns(bool)\n  {\n    GenericAction( msg.sender, _action, _params);\n    return avatar.genericAction(_action, _params);\n  }\n\n  /**\n   * @dev send some ether\n   * @param _amountInWei the amount of ether (in Wei) to send\n   * @param _to address of the beneficary\n   */\n  function sendEther(uint _amountInWei, address _to)\n    public\n    onlyRegisteredScheme\n    onlySubjectToConstraint(\"sendEther\")\n    returns(bool)\n  {\n    SendEther( msg.sender, _amountInWei, _to );\n    return avatar.sendEther(_amountInWei, _to);\n  }\n\n  /**\n   * @dev send some amount of arbitrary ERC20 Tokens\n   * @param _externalToken the address of the Token Contract\n   * @param _to address of the beneficary\n   * @param _value the amount of ether (in Wei) to send\n   */\n  function externalTokenTransfer(StandardToken _externalToken, address _to, uint _value)\n    public\n    onlyRegisteredScheme\n    onlySubjectToConstraint(\"externalTokenTransfer\")\n    returns(bool)\n  {\n    ExternalTokenTransfer(msg.sender, _externalToken, _to, _value);\n    return avatar.externalTokenTransfer(_externalToken, _to, _value);\n  }\n\n  function externalTokenTransferFrom(StandardToken _externalToken, address _from, address _to, uint _value)\n    public\n    onlyRegisteredScheme\n    onlySubjectToConstraint(\"externalTokenTransferFrom\")\n    returns(bool)\n  {\n    ExternalTokenTransferFrom(msg.sender, _externalToken, _from, _to, _value);\n    return avatar.externalTokenTransferFrom(_externalToken, _from, _to, _value);\n  }\n\n  function externalTokenApprove(StandardToken _externalToken, address _spender, uint _value)\n    public\n    onlyRegisteredScheme\n    onlySubjectToConstraint(\"externalTokenApprove\")\n    returns(bool)\n  {\n    ExternalTokenApprove( msg.sender, _externalToken, _spender, _value );\n    return avatar.externalTokenApprove(_externalToken, _spender, _value );\n  }\n\n  // Do not allow mistaken calls:\n  function() public {\n    revert();\n  }\n}\n",
  "sourcePath": "/Users/tibet/Dev/Emergence/daostack/contracts/controller/Controller.sol",
  "compiler": {
    "name": "solc",
    "version": "0.4.18+commit.9cf6e910.Emscripten.clang"
  },
  "schemaVersion": "1.0.1",
  "updatedAt": "2017-12-08T01:15:38.713Z"
}