{
  "contractName": "Destructible",
  "abi": [
    {
      "constant": false,
      "inputs": [],
      "name": "destroy",
      "outputs": [],
      "payable": false,
      "stateMutability": "nonpayable",
      "type": "function"
    },
    {
      "constant": true,
      "inputs": [],
      "name": "owner",
      "outputs": [
        {
          "name": "",
          "type": "address"
        }
      ],
      "payable": false,
      "stateMutability": "view",
      "type": "function"
    },
    {
      "constant": false,
      "inputs": [
        {
          "name": "newOwner",
          "type": "address"
        }
      ],
      "name": "transferOwnership",
      "outputs": [],
      "payable": false,
      "stateMutability": "nonpayable",
      "type": "function"
    },
    {
      "constant": false,
      "inputs": [
        {
          "name": "_recipient",
          "type": "address"
        }
      ],
      "name": "destroyAndSend",
      "outputs": [],
      "payable": false,
      "stateMutability": "nonpayable",
      "type": "function"
    },
    {
      "inputs": [],
      "payable": true,
      "stateMutability": "payable",
      "type": "constructor"
    }
  ],
  "bytecode": "0x606060405260008054600160a060020a033316600160a060020a03199091161790556101c9806100306000396000f3006060604052600436106100615763ffffffff7c010000000000000000000000000000000000000000000000000000000060003504166383197ef081146100665780638da5cb5b1461007b578063f2fde38b146100aa578063f5074f41146100c9575b600080fd5b341561007157600080fd5b6100796100e8565b005b341561008657600080fd5b61008e610111565b604051600160a060020a03909116815260200160405180910390f35b34156100b557600080fd5b610079600160a060020a0360043516610120565b34156100d457600080fd5b610079600160a060020a0360043516610176565b60005433600160a060020a0390811691161461010357600080fd5b600054600160a060020a0316ff5b600054600160a060020a031681565b60005433600160a060020a0390811691161461013b57600080fd5b600160a060020a03811615610173576000805473ffffffffffffffffffffffffffffffffffffffff1916600160a060020a0383161790555b50565b60005433600160a060020a0390811691161461019157600080fd5b80600160a060020a0316ff00a165627a7a723058202778ffe055ffb3fa4933d625d044b112334aae697e24b9c51b4f462152f6bcf50029",
  "source": "pragma solidity ^0.4.11;\n\n\nimport \"../ownership/Ownable.sol\";\n\n\n/**\n * @title Destructible\n * @dev Base contract that can be destroyed by owner. All funds in contract will be sent to the owner.\n */\ncontract Destructible is Ownable {\n\n  function Destructible() payable { } \n\n  /**\n   * @dev Transfers the current balance to the owner and terminates the contract. \n   */\n  function destroy() onlyOwner {\n    selfdestruct(owner);\n  }\n\n  function destroyAndSend(address _recipient) onlyOwner {\n    selfdestruct(_recipient);\n  }\n}\n",
  "sourcePath": "zeppelin-solidity/contracts/lifecycle/Destructible.sol",
  "compiler": {
    "name": "solc",
    "version": "0.4.18+commit.9cf6e910.Emscripten.clang"
  },
  "schemaVersion": "1.0.1",
  "updatedAt": "2017-12-01T22:18:41.022Z"
}