{
  "contractName": "GlobalConstraintRegistrar",
  "abi": [
    {
      "constant": true,
      "inputs": [
        {
          "name": "",
          "type": "bytes32"
        }
      ],
      "name": "parameters",
      "outputs": [
        {
          "name": "voteRegisterParams",
          "type": "bytes32"
        },
        {
          "name": "intVote",
          "type": "address"
        }
      ],
      "payable": false,
      "stateMutability": "view",
      "type": "function"
    },
    {
      "constant": false,
      "inputs": [
        {
          "name": "_avatar",
          "type": "address"
        },
        {
          "name": "_gc",
          "type": "address"
        },
        {
          "name": "_params",
          "type": "bytes32"
        },
        {
          "name": "_removeParams",
          "type": "bytes32"
        }
      ],
      "name": "proposeGlobalConstraint",
      "outputs": [
        {
          "name": "",
          "type": "bytes32"
        }
      ],
      "payable": false,
      "stateMutability": "nonpayable",
      "type": "function"
    },
    {
      "constant": true,
      "inputs": [
        {
          "name": "_voteRegisterParams",
          "type": "bytes32"
        },
        {
          "name": "_intVote",
          "type": "address"
        }
      ],
      "name": "getParametersHash",
      "outputs": [
        {
          "name": "",
          "type": "bytes32"
        }
      ],
      "payable": false,
      "stateMutability": "pure",
      "type": "function"
    },
    {
      "constant": false,
      "inputs": [
        {
          "name": "_proposalId",
          "type": "bytes32"
        },
        {
          "name": "_avatar",
          "type": "address"
        },
        {
          "name": "_param",
          "type": "int256"
        }
      ],
      "name": "execute",
      "outputs": [
        {
          "name": "",
          "type": "bool"
        }
      ],
      "payable": false,
      "stateMutability": "nonpayable",
      "type": "function"
    },
    {
      "constant": true,
      "inputs": [],
      "name": "beneficiary",
      "outputs": [
        {
          "name": "",
          "type": "address"
        }
      ],
      "payable": false,
      "stateMutability": "view",
      "type": "function"
    },
    {
      "constant": false,
      "inputs": [
        {
          "name": "_nativeToken",
          "type": "address"
        },
        {
          "name": "_fee",
          "type": "uint256"
        },
        {
          "name": "_beneficiary",
          "type": "address"
        },
        {
          "name": "_hashedParameters",
          "type": "bytes32"
        }
      ],
      "name": "updateParameters",
      "outputs": [],
      "payable": false,
      "stateMutability": "nonpayable",
      "type": "function"
    },
    {
      "constant": true,
      "inputs": [
        {
          "name": "",
          "type": "address"
        }
      ],
      "name": "organizations",
      "outputs": [
        {
          "name": "isRegistered",
          "type": "bool"
        },
        {
          "name": "voteRegisterParams",
          "type": "bytes32"
        },
        {
          "name": "intVote",
          "type": "address"
        }
      ],
      "payable": false,
      "stateMutability": "view",
      "type": "function"
    },
    {
      "constant": false,
      "inputs": [
        {
          "name": "_voteRegisterParams",
          "type": "bytes32"
        },
        {
          "name": "_intVote",
          "type": "address"
        }
      ],
      "name": "setParameters",
      "outputs": [
        {
          "name": "",
          "type": "bytes32"
        }
      ],
      "payable": false,
      "stateMutability": "nonpayable",
      "type": "function"
    },
    {
      "constant": true,
      "inputs": [],
      "name": "owner",
      "outputs": [
        {
          "name": "",
          "type": "address"
        }
      ],
      "payable": false,
      "stateMutability": "view",
      "type": "function"
    },
    {
      "constant": false,
      "inputs": [
        {
          "name": "_avatar",
          "type": "address"
        }
      ],
      "name": "registerOrganization",
      "outputs": [],
      "payable": false,
      "stateMutability": "nonpayable",
      "type": "function"
    },
    {
      "constant": true,
      "inputs": [
        {
          "name": "_avatar",
          "type": "address"
        }
      ],
      "name": "isRegistered",
      "outputs": [
        {
          "name": "",
          "type": "bool"
        }
      ],
      "payable": false,
      "stateMutability": "view",
      "type": "function"
    },
    {
      "constant": true,
      "inputs": [],
      "name": "fee",
      "outputs": [
        {
          "name": "",
          "type": "uint256"
        }
      ],
      "payable": false,
      "stateMutability": "view",
      "type": "function"
    },
    {
      "constant": true,
      "inputs": [],
      "name": "nativeToken",
      "outputs": [
        {
          "name": "",
          "type": "address"
        }
      ],
      "payable": false,
      "stateMutability": "view",
      "type": "function"
    },
    {
      "constant": false,
      "inputs": [
        {
          "name": "newOwner",
          "type": "address"
        }
      ],
      "name": "transferOwnership",
      "outputs": [],
      "payable": false,
      "stateMutability": "nonpayable",
      "type": "function"
    },
    {
      "constant": false,
      "inputs": [
        {
          "name": "_avatar",
          "type": "address"
        },
        {
          "name": "_gc",
          "type": "address"
        }
      ],
      "name": "proposeToRemoveGC",
      "outputs": [
        {
          "name": "",
          "type": "bytes32"
        }
      ],
      "payable": false,
      "stateMutability": "nonpayable",
      "type": "function"
    },
    {
      "constant": true,
      "inputs": [],
      "name": "hashedParameters",
      "outputs": [
        {
          "name": "",
          "type": "bytes32"
        }
      ],
      "payable": false,
      "stateMutability": "view",
      "type": "function"
    },
    {
      "inputs": [
        {
          "name": "_nativeToken",
          "type": "address"
        },
        {
          "name": "_fee",
          "type": "uint256"
        },
        {
          "name": "_beneficiary",
          "type": "address"
        }
      ],
      "payable": false,
      "stateMutability": "nonpayable",
      "type": "constructor"
    },
    {
      "anonymous": false,
      "inputs": [
        {
          "indexed": true,
          "name": "_avatar",
          "type": "address"
        },
        {
          "indexed": true,
          "name": "_proposalId",
          "type": "bytes32"
        },
        {
          "indexed": true,
          "name": "_intVoteInterface",
          "type": "address"
        },
        {
          "indexed": false,
          "name": "_gc",
          "type": "address"
        },
        {
          "indexed": false,
          "name": "_params",
          "type": "bytes32"
        },
        {
          "indexed": false,
          "name": "_removeParams",
          "type": "bytes32"
        }
      ],
      "name": "LogNewGlobalConstraintsProposal",
      "type": "event"
    },
    {
      "anonymous": false,
      "inputs": [
        {
          "indexed": true,
          "name": "_avatar",
          "type": "address"
        },
        {
          "indexed": true,
          "name": "_proposalId",
          "type": "bytes32"
        },
        {
          "indexed": true,
          "name": "_intVoteInterface",
          "type": "address"
        },
        {
          "indexed": false,
          "name": "_gc",
          "type": "address"
        }
      ],
      "name": "LogRemoveGlobalConstraintsProposal",
      "type": "event"
    },
    {
      "anonymous": false,
      "inputs": [
        {
          "indexed": true,
          "name": "_avatar",
          "type": "address"
        },
        {
          "indexed": true,
          "name": "_proposalId",
          "type": "bytes32"
        }
      ],
      "name": "LogProposalExecuted",
      "type": "event"
    },
    {
      "anonymous": false,
      "inputs": [
        {
          "indexed": true,
          "name": "_avatar",
          "type": "address"
        },
        {
          "indexed": true,
          "name": "_proposalId",
          "type": "bytes32"
        }
      ],
      "name": "LogProposalDeleted",
      "type": "event"
    },
    {
      "anonymous": false,
      "inputs": [
        {
          "indexed": false,
          "name": "_avatar",
          "type": "address"
        }
      ],
      "name": "LogOrgRegistered",
      "type": "event"
    },
    {
      "anonymous": false,
      "inputs": [
        {
          "indexed": false,
          "name": "proposalId",
          "type": "bytes32"
        }
      ],
      "name": "LogNewProposal",
      "type": "event"
    }
  ],
  "bytecode": "0x6060604052341561000f57600080fd5b60405160608061117283398101604052808051919060200180519190602001805160008054600160a060020a03191633600160a060020a031617815590925061006b915084908490849064010000000061007381026109971704565b5050506100c6565b60005433600160a060020a0390811691161461008e57600080fd5b60018054600160a060020a0319908116600160a060020a03968716179091556002939093556003805490931691909316179055600455565b61109d806100d56000396000f3006060604052600436106100cc5763ffffffff60e060020a6000350416630250680481146100d15780630fd6e498146101085780632453732a14610145578063310ce4e21461016757806338af3eed146101a05780634345a610146101cf5780635a1f7406146101fd57806368e14dac1461024b5780638da5cb5b1461026d57806390be003c14610280578063c3c5a5471461029f578063ddca3f43146102be578063e1758bd8146102d1578063f2fde38b146102e4578063f731e47014610303578063f98e87ba14610328575b600080fd5b34156100dc57600080fd5b6100e760043561033b565b604051918252600160a060020a031660208201526040908101905180910390f35b341561011357600080fd5b610133600160a060020a036004358116906024351660443560643561035d565b60405190815260200160405180910390f35b341561015057600080fd5b610133600435600160a060020a036024351661060c565b341561017257600080fd5b61018c600435600160a060020a0360243516604435610648565b604051901515815260200160405180910390f35b34156101ab57600080fd5b6101b3610988565b604051600160a060020a03909116815260200160405180910390f35b34156101da57600080fd5b6101fb600160a060020a036004358116906024359060443516606435610997565b005b341561020857600080fd5b61021c600160a060020a03600435166109ea565b60405192151583526020830191909152600160a060020a03166040808301919091526060909101905180910390f35b341561025657600080fd5b610133600435600160a060020a0360243516610a18565b341561027857600080fd5b6101b3610a60565b341561028b57600080fd5b6101fb600160a060020a0360043516610a6f565b34156102aa57600080fd5b61018c600160a060020a0360043516610bdb565b34156102c957600080fd5b610133610bf9565b34156102dc57600080fd5b6101b3610bff565b34156102ef57600080fd5b6101fb600160a060020a0360043516610c0e565b341561030e57600080fd5b610133600160a060020a0360043581169060243516610c57565b341561033357600080fd5b610133610f30565b60066020526000908152604090208054600190910154600160a060020a031682565b6000610367611013565b60008061037261102a565b61037b89610bdb565b151561038657600080fd5b600660006103938b610f36565b81526020810191909152604090810160002090805190810160405281548152600190910154600160a060020a031660208201908152909450519250600160a060020a0383166388737b5e600286518c3060006040516020015260405160e060020a63ffffffff871602815260048101949094526024840192909252600160a060020a039081166044840152166064820152608401602060405180830381600087803b151561044057600080fd5b6102c65a03f1151561045157600080fd5b50505060405180519050915060806040519081016040908152600160a060020a03808b16835260208084018b9052600183850152606084018a9052908c166000908152600582528281208682526003019091522060020154909150156104b657600080fd5b600160a060020a03891660009081526005602090815260408083208584526003019091529020819081518154600160a060020a031916600160a060020a03919091161781556020820151600182015560408201518160020155606082015160039091015550600160a060020a038084169083908b167f0b638d08f42bdcc0324aef9290d1f60be05400137a0e05c4704b90fbe753b8178b8b8b604051600160a060020a03909316835260208301919091526040808301919091526060909101905180910390a482600160a060020a031663339e23d18360013360006040516020015260405160e060020a63ffffffff861602815260048101939093526024830191909152600160a060020a03166044820152606401602060405180830381600087803b15156105e457600080fd5b6102c65a03f115156105f557600080fd5b505050604051805150919998505050505050505050565b6000808383604051918252600160a060020a03166c01000000000000000000000000026020820152603401604051908190039020949350505050565b60008061065361102a565b33600160a060020a03166006600061066a88610f36565b8152602081019190915260400160002060010154600160a060020a03161461069157600080fd5b6001841461071c57600160a060020a03851660008181526005602090815260408083208a845260039081019092528083208054600160a060020a03191681556001810184905560028101849055909101919091558791907fb5a530776d05e9cd7b304c6670fc54c08de4635c6c958237204d61215ca1ce34905160405180910390a36001925061097f565b84600160a060020a0316638da5cb5b6000604051602001526040518163ffffffff1660e060020a028152600401602060405180830381600087803b151561076257600080fd5b6102c65a03f1151561077357600080fd5b5050506040518051600160a060020a03871660009081526005602090815260408083208b8452600301909152908190209194509091506080905190810160409081528254600160a060020a0316825260018301546020830152600283015490820190815260039092015460608201529150516001141561087557600160a060020a0382166346a4869c8251836020015160006040516020015260405160e060020a63ffffffff8516028152600160a060020a0390921660048301526024820152604401602060405180830381600087803b151561084f57600080fd5b6102c65a03f1151561086057600080fd5b50505060405180519050151561087557600080fd5b80604001516002141561090057600160a060020a03821663488b3814825160006040516020015260405160e060020a63ffffffff8416028152600160a060020a039091166004820152602401602060405180830381600087803b15156108da57600080fd5b6102c65a03f115156108eb57600080fd5b50505060405180519050151561090057600080fd5b600160a060020a03851660008181526005602090815260408083208a845260039081019092528083208054600160a060020a03191681556001810184905560028101849055909101919091558791907f1f9b6fe94f8389fd9936094c2246b3cb2b4392e59e72e915e70e6a08a47a1fb9905160405180910390a3600192505b50509392505050565b600354600160a060020a031681565b60005433600160a060020a039081169116146109b257600080fd5b60018054600160a060020a0319908116600160a060020a03968716179091556002939093556003805490931691909316179055600455565b60056020526000908152604090208054600182015460029092015460ff9091169190600160a060020a031683565b600080610a25848461060c565b60008181526006602052604090208581556001018054600160a060020a038616600160a060020a031990911617905591508190505092915050565b600054600160a060020a031681565b610a77611051565b6000600254118015610aa25750600160a060020a03821660009081526005602052604090205460ff16155b15610b3b57600154600354600254600160a060020a03928316926323b872dd92869291169060006040516020015260405160e060020a63ffffffff8616028152600160a060020a0393841660048201529190921660248201526044810191909152606401602060405180830381600087803b1515610b1f57600080fd5b6102c65a03f11515610b3057600080fd5b505050604051805150505b60018152600160a060020a038216600090815260056020526040902081908151815460ff19169015151781556020820151600182015560408201516002919091018054600160a060020a031916600160a060020a03909216919091179055507fe9db4686ffcf478f0c9aa617f5d4f8ad2672b75414d7bea26368c6f65fb418df82604051600160a060020a03909116815260200160405180910390a15050565b600160a060020a031660009081526005602052604090205460ff1690565b60025481565b600154600160a060020a031681565b60005433600160a060020a03908116911614610c2957600080fd5b600160a060020a03811615610c545760008054600160a060020a031916600160a060020a0383161790555b50565b600080610c62611013565b600080610c6d61102a565b600160a060020a03881660009081526005602052604081209550600690610c938a610f36565b81526020810191909152604090810160002090805190810160405281548152600190910154600160a060020a03166020820152855490945060ff161515610cd957600080fd5b8360200151925082600160a060020a03166388737b5e60028760040160008b600160a060020a0316600160a060020a03168152602001908152602001600020548b3060006040516020015260405160e060020a63ffffffff871602815260048101949094526024840192909252600160a060020a039081166044840152166064820152608401602060405180830381600087803b1515610d7857600080fd5b6102c65a03f11515610d8957600080fd5b50505060405180519050915060806040519081016040908152600160a060020a03808a16835260006020808501829052600284860181905260608601839052928d16825260058152838220878352600301905291909120015490915015610def57600080fd5b600160a060020a03881660009081526005602090815260408083208584526003019091529020819081518154600160a060020a031916600160a060020a03919091161781556020820151600182015560408201518160020155606082015160039091015550600160a060020a038084169083908a167fe05140301a4dc5d422c41f089ae3eb92bc3ba3b7a4bd7f844a2f32db16b0f3d28a604051600160a060020a03909116815260200160405180910390a482600160a060020a031663339e23d18360013360006040516020015260405160e060020a63ffffffff861602815260048101939093526024830191909152600160a060020a03166044820152606401602060405180830381600087803b1515610f0957600080fd5b6102c65a03f11515610f1a57600080fd5b5050506040518051509198975050505050505050565b60045481565b60008082600160a060020a0316638da5cb5b6000604051602001526040518163ffffffff1660e060020a028152600401602060405180830381600087803b1515610f7f57600080fd5b6102c65a03f11515610f9057600080fd5b5050506040518051915050600160a060020a0381166346e361b73060006040516020015260405160e060020a63ffffffff8416028152600160a060020a039091166004820152602401602060405180830381600087803b1515610ff257600080fd5b6102c65a03f1151561100357600080fd5b5050506040518051949350505050565b604080519081016040526000808252602082015290565b60806040519081016040908152600080835260208301819052908201819052606082015290565b6060604051908101604090815260008083526020830181905290820152905600a165627a7a723058207abe7168ca7964ffa8c4d40d32e74216eebded65c3c305408e4d117757c2364b0029",
  "source": "pragma solidity ^0.4.18;\n\nimport \"../VotingMachines/IntVoteInterface.sol\";\nimport \"./UniversalScheme.sol\";\n\n\n/**\n * @title A scheme to manage global constaintg for organizations\n * @dev The scheme is used to register or remove new global constraints\n */\ncontract GlobalConstraintRegistrar is UniversalScheme {\n    event LogNewGlobalConstraintsProposal(\n        address indexed _avatar,\n        bytes32 indexed _proposalId,\n        address indexed _intVoteInterface,\n        address _gc,\n        bytes32 _params,\n        bytes32 _removeParams\n    );\n    event LogRemoveGlobalConstraintsProposal(\n        address indexed _avatar,\n        bytes32 indexed _proposalId,\n        address indexed _intVoteInterface,\n        address _gc\n    );\n    event LogProposalExecuted(address indexed _avatar, bytes32 indexed _proposalId);\n    event LogProposalDeleted(address indexed _avatar, bytes32 indexed _proposalId);\n\n    // The struct that holds the information of a global constraint proposed to be added or removed.\n    struct GCProposal {\n        address gc; // The address of the global contraint contract.\n        bytes32 params; // Parameters for global constraint.\n        uint proposalType; // 1: add a GC, 2: remove a GC.\n        bytes32 removeParams; // Voting parameters for removing this GC.\n    }\n\n    // Struct holding the data for each organization\n    struct Organization {\n        bool isRegistered;\n        bytes32 voteRegisterParams; // The voting parameters for adding a GC.\n        IntVoteInterface intVote; // The voting machine in which the voting takes place.\n        mapping(bytes32=>GCProposal) proposals; // A mapping from the proposal ID to the proposal itself.\n        mapping(address=>bytes32) removeParams; // A mapping that saves the parameters for removing each GC.\n    }\n\n    // A mapping from thr organization (Avatar) address to the saved data of the organization:\n    mapping(address=>Organization) public organizations;\n\n    // A mapping from hashes to parameters (use to store a particular configuration on the controller)\n    struct Parameters {\n        bytes32 voteRegisterParams;\n        IntVoteInterface intVote;\n    }\n    mapping(bytes32=>Parameters) public parameters;\n\n    function GlobalConstraintRegistrar(StandardToken _nativeToken, uint _fee, address _beneficiary) public {\n        updateParameters(_nativeToken, _fee, _beneficiary, bytes32(0));\n    }\n\n    /**\n    * @dev hash the parameters, save them if necessary, and return the hash value\n    */\n    function setParameters(\n        bytes32 _voteRegisterParams,\n        IntVoteInterface _intVote\n    ) public returns(bytes32)\n    {\n        bytes32 paramsHash = getParametersHash(_voteRegisterParams, _intVote);\n        parameters[paramsHash].voteRegisterParams = _voteRegisterParams;\n        parameters[paramsHash].intVote = _intVote;\n        return paramsHash;\n    }\n\n    function getParametersHash(\n        bytes32 _voteRegisterParams,\n        IntVoteInterface _intVote\n    ) public pure returns(bytes32)\n    {\n        bytes32 paramsHash = (keccak256(_voteRegisterParams, _intVote));\n        return paramsHash;\n    }\n\n    // Adding an organization to the universal scheme:\n    // TODO: probably we want to define registerOrganization and isRegistered in UniversalScheme\n    function registerOrganization(Avatar _avatar) public {\n        // Pay fees for using scheme:\n        if ((fee > 0) && (! organizations[_avatar].isRegistered)) {\n            nativeToken.transferFrom(_avatar, beneficiary, fee);\n        }\n\n        Organization memory org;\n        org.isRegistered = true;\n        organizations[_avatar] = org;\n        LogOrgRegistered(_avatar);\n    }\n\n    function isRegistered(address _avatar) public constant returns(bool) {\n        return organizations[_avatar].isRegistered;\n    }\n\n    /**\n    * @dev propose to add a new global constraint:\n    * @param _avatar the avatar of the organization that the constraint is proposed for\n    * @param _gc the address of the global constraint that is being proposed\n    * @param _params the parameters for the global contraint\n    * @param _removeParams the conditions (on the voting machine) for removing this global constraint\n    */\n    // TODO: do some checks on _removeParams - it is very easy to make a mistake and not be able to remove the GC\n    function proposeGlobalConstraint(Avatar _avatar, address _gc, bytes32 _params, bytes32 _removeParams) public returns(bytes32) {\n        require(isRegistered(_avatar)); // Check org is registered to use this universal scheme.\n        Parameters memory votingParams = parameters[getParametersFromController(_avatar)];\n\n        IntVoteInterface intVote = votingParams.intVote;\n        bytes32 proposalId = intVote.propose(2, votingParams.voteRegisterParams, _avatar, ExecutableInterface(this));\n\n        GCProposal memory proposal = GCProposal({\n            gc: _gc,\n            params: _params,\n            proposalType: 1,\n            removeParams: _removeParams\n        });\n\n        if (organizations[_avatar].proposals[proposalId].proposalType != 0) {\n            revert();\n        }\n        organizations[_avatar].proposals[proposalId] = proposal;\n        LogNewGlobalConstraintsProposal(\n            _avatar,\n            proposalId,\n            intVote,\n            _gc,\n            _params,\n            _removeParams\n        );\n        intVote.ownerVote(proposalId, 1, msg.sender); // Automatically votes `yes` in the name of the opener.\n        return proposalId;\n    }\n\n    // Proposing to remove a new GC:\n    function proposeToRemoveGC(Avatar _avatar, address _gc) public returns(bytes32) {\n        Organization storage org = organizations[_avatar];\n        Parameters memory params = parameters[getParametersFromController(_avatar)];\n        require(org.isRegistered); // Check org is registred to use this universal scheme.\n        IntVoteInterface intVote = params.intVote;\n        bytes32 proposalId = intVote.propose(2, org.removeParams[_gc], _avatar, ExecutableInterface(this));\n\n        GCProposal memory proposal = GCProposal({\n            gc: _gc,\n            params: 0,\n            proposalType: 2,\n            removeParams: 0\n        });\n\n        if (organizations[_avatar].proposals[proposalId].proposalType != 0) {\n            revert();\n        }\n        organizations[_avatar].proposals[proposalId] = proposal;\n        LogRemoveGlobalConstraintsProposal(_avatar, proposalId, intVote, _gc);\n        intVote.ownerVote(proposalId, 1, msg.sender); // Automatically votes `yes` in the name of the opener.\n        return proposalId;\n    }\n\n    /**\n    * @dev execution of proposals, can only be called by the voting machine in which the vote is held.\n    * @param _proposalId the ID of the voting in the voting machine\n    * @param _avatar address of the controller\n    * @param _param a parameter of the voting result, 0 is no and 1 is yes.\n    */\n    function execute(bytes32 _proposalId, address _avatar, int _param) public returns(bool) {\n        // Check the caller is indeed the voting machine:\n        require(parameters[getParametersFromController(Avatar(_avatar))].intVote == msg.sender);\n\n        // Check if vote was successful:\n        if (_param != 1 ) {\n            delete organizations[_avatar].proposals[_proposalId];\n            LogProposalDeleted(_avatar, _proposalId);\n            return true;\n        }\n        // Define controller and get the parmas:\n        Controller controller = Controller(Avatar(_avatar).owner());\n        GCProposal memory proposal = organizations[_avatar].proposals[_proposalId];\n\n        // Adding a GC\n        if (proposal.proposalType == 1) {\n            if (!controller.addGlobalConstraint(proposal.gc, proposal.params)) {\n                revert();\n            }\n        }\n\n        // Removing a GC\n        if (proposal.proposalType == 2) {\n            if (!controller.removeGlobalConstraint(proposal.gc)) {\n                revert();\n            }\n        }\n        delete organizations[_avatar].proposals[_proposalId];\n        LogProposalExecuted(_avatar, _proposalId);\n        return true;\n    }\n}\n",
  "sourcePath": "/Users/tibet/Dev/Emergence/daostack/contracts/universalSchemes/GlobalConstraintRegistrar.sol",
  "compiler": {
    "name": "solc",
    "version": "0.4.18+commit.9cf6e910.Emscripten.clang"
  },
  "schemaVersion": "1.0.1",
  "updatedAt": "2017-12-08T01:15:38.748Z"
}