{
  "contractName": "OrganizationRegister",
  "abi": [
    {
      "constant": true,
      "inputs": [],
      "name": "beneficiary",
      "outputs": [
        {
          "name": "",
          "type": "address"
        }
      ],
      "payable": false,
      "stateMutability": "view",
      "type": "function"
    },
    {
      "constant": false,
      "inputs": [
        {
          "name": "_avatar",
          "type": "address"
        },
        {
          "name": "_record",
          "type": "address"
        },
        {
          "name": "_amount",
          "type": "uint256"
        }
      ],
      "name": "addOrPromoteOrg",
      "outputs": [],
      "payable": false,
      "stateMutability": "nonpayable",
      "type": "function"
    },
    {
      "constant": false,
      "inputs": [
        {
          "name": "_nativeToken",
          "type": "address"
        },
        {
          "name": "_fee",
          "type": "uint256"
        },
        {
          "name": "_beneficiary",
          "type": "address"
        },
        {
          "name": "_hashedParameters",
          "type": "bytes32"
        }
      ],
      "name": "updateParameters",
      "outputs": [],
      "payable": false,
      "stateMutability": "nonpayable",
      "type": "function"
    },
    {
      "constant": true,
      "inputs": [],
      "name": "owner",
      "outputs": [
        {
          "name": "",
          "type": "address"
        }
      ],
      "payable": false,
      "stateMutability": "view",
      "type": "function"
    },
    {
      "constant": false,
      "inputs": [
        {
          "name": "_token",
          "type": "address"
        },
        {
          "name": "_fee",
          "type": "uint256"
        },
        {
          "name": "_beneficiary",
          "type": "address"
        }
      ],
      "name": "setParameters",
      "outputs": [
        {
          "name": "",
          "type": "bytes32"
        }
      ],
      "payable": false,
      "stateMutability": "nonpayable",
      "type": "function"
    },
    {
      "constant": false,
      "inputs": [
        {
          "name": "_avatar",
          "type": "address"
        }
      ],
      "name": "registerOrganization",
      "outputs": [],
      "payable": false,
      "stateMutability": "nonpayable",
      "type": "function"
    },
    {
      "constant": true,
      "inputs": [
        {
          "name": "_token",
          "type": "address"
        },
        {
          "name": "_fee",
          "type": "uint256"
        },
        {
          "name": "_beneficiary",
          "type": "address"
        }
      ],
      "name": "getParametersHash",
      "outputs": [
        {
          "name": "",
          "type": "bytes32"
        }
      ],
      "payable": false,
      "stateMutability": "pure",
      "type": "function"
    },
    {
      "constant": true,
      "inputs": [],
      "name": "fee",
      "outputs": [
        {
          "name": "",
          "type": "uint256"
        }
      ],
      "payable": false,
      "stateMutability": "view",
      "type": "function"
    },
    {
      "constant": true,
      "inputs": [],
      "name": "nativeToken",
      "outputs": [
        {
          "name": "",
          "type": "address"
        }
      ],
      "payable": false,
      "stateMutability": "view",
      "type": "function"
    },
    {
      "constant": false,
      "inputs": [
        {
          "name": "newOwner",
          "type": "address"
        }
      ],
      "name": "transferOwnership",
      "outputs": [],
      "payable": false,
      "stateMutability": "nonpayable",
      "type": "function"
    },
    {
      "constant": true,
      "inputs": [],
      "name": "hashedParameters",
      "outputs": [
        {
          "name": "",
          "type": "bytes32"
        }
      ],
      "payable": false,
      "stateMutability": "view",
      "type": "function"
    },
    {
      "inputs": [
        {
          "name": "_nativeToken",
          "type": "address"
        },
        {
          "name": "_fee",
          "type": "uint256"
        },
        {
          "name": "_beneficiary",
          "type": "address"
        }
      ],
      "payable": false,
      "stateMutability": "nonpayable",
      "type": "constructor"
    },
    {
      "anonymous": false,
      "inputs": [
        {
          "indexed": true,
          "name": "_registry",
          "type": "address"
        },
        {
          "indexed": true,
          "name": "_org",
          "type": "address"
        }
      ],
      "name": "OrgAdded",
      "type": "event"
    },
    {
      "anonymous": false,
      "inputs": [
        {
          "indexed": true,
          "name": "_registry",
          "type": "address"
        },
        {
          "indexed": true,
          "name": "_org",
          "type": "address"
        },
        {
          "indexed": false,
          "name": "_amount",
          "type": "uint256"
        }
      ],
      "name": "Promotion",
      "type": "event"
    },
    {
      "anonymous": false,
      "inputs": [
        {
          "indexed": false,
          "name": "_avatar",
          "type": "address"
        }
      ],
      "name": "LogOrgRegistered",
      "type": "event"
    },
    {
      "anonymous": false,
      "inputs": [
        {
          "indexed": false,
          "name": "proposalId",
          "type": "bytes32"
        }
      ],
      "name": "LogNewProposal",
      "type": "event"
    }
  ],
  "bytecode": "0x6060604052341561000f57600080fd5b6040516060806108eb83398101604052808051919060200180519190602001805160008054600160a060020a03191633600160a060020a031617815590925061006b9150849084908490640100000000610073810261042a1704565b5050506100c6565b60005433600160a060020a0390811691161461008e57600080fd5b60018054600160a060020a0319908116600160a060020a03968716179091556002939093556003805490931691909316179055600455565b610816806100d56000396000f3006060604052600436106100955763ffffffff60e060020a60003504166338af3eed811461009a5780633e1c1b3d146100c95780634345a610146100f35780638da5cb5b1461011f5780638fd631af1461013257806390be003c1461016d57806399cc9e731461018c578063ddca3f43146101b5578063e1758bd8146101c8578063f2fde38b146101db578063f98e87ba146101fa575b600080fd5b34156100a557600080fd5b6100ad61020d565b604051600160a060020a03909116815260200160405180910390f35b34156100d457600080fd5b6100f1600160a060020a036004358116906024351660443561021c565b005b34156100fe57600080fd5b6100f1600160a060020a03600435811690602435906044351660643561042a565b341561012a57600080fd5b6100ad61048a565b341561013d57600080fd5b61015b600160a060020a036004358116906024359060443516610499565b60405190815260200160405180910390f35b341561017857600080fd5b6100f1600160a060020a0360043516610524565b341561019757600080fd5b61015b600160a060020a036004358116906024359060443516610621565b34156101c057600080fd5b61015b61066a565b34156101d357600080fd5b6100ad610670565b34156101e657600080fd5b6100f1600160a060020a036004351661067f565b341561020557600080fd5b61015b6106d5565b600354600160a060020a031681565b60006102266107b8565b600160a060020a0385166000908152600560205260408120925060069061024c876106db565b81526020810191909152604090810160002090606090519081016040908152825482526001830154600160a060020a03908116602084015260029093015490921691810191909152825490915060ff1615156102a757600080fd5b600160a060020a03841660009081526001830160205260409020541580156102cf5750805183105b156102d957600080fd5b8060200151600160a060020a03166323b872dd3383604001518660006040516020015260405160e060020a63ffffffff8616028152600160a060020a0393841660048201529190921660248201526044810191909152606401602060405180830381600087803b151561034b57600080fd5b6102c65a03f1151561035c57600080fd5b50505060405180515050600160a060020a038416600090815260018301602052604090205415156103c85783600160a060020a031685600160a060020a03167fbb755c25de622371a070056e89daca3dffb2591e14bfeaf5a22a5ff538f6430460405160405180910390a35b600160a060020a0380851660008181526001850160205260409081902080548701905590918716907fbd26cf001a8e3be5dc9ac9f95c5e8fef2258c1ded9c61814e107db3ce9bbf2ca9086905190815260200160405180910390a35050505050565b60005433600160a060020a0390811691161461044557600080fd5b6001805473ffffffffffffffffffffffffffffffffffffffff19908116600160a060020a03968716179091556002939093556003805490931691909316179055600455565b600054600160a060020a031681565b6000806104a7858585610621565b600081815260066020526040902060010154909150600160a060020a0316151561051c576000818152600660205260409020600181018054600160a060020a0380891673ffffffffffffffffffffffffffffffffffffffff199283161790925586835560029092018054918616919092161790555b949350505050565b61052c6107d8565b60006002541180156105575750600160a060020a03821660009081526005602052604090205460ff16155b156105f057600154600354600254600160a060020a03928316926323b872dd92869291169060006040516020015260405160e060020a63ffffffff8616028152600160a060020a0393841660048201529190921660248201526044810191909152606401602060405180830381600087803b15156105d457600080fd5b6102c65a03f115156105e557600080fd5b505050604051805150505b60018152600160a060020a038216600090815260056020526040902081908151815460ff1916901515179055505050565b60008383836040516c01000000000000000000000000600160a060020a039485168102825260148201939093529216026034820152604801604051809103902090509392505050565b60025481565b600154600160a060020a031681565b60005433600160a060020a0390811691161461069a57600080fd5b600160a060020a038116156106d2576000805473ffffffffffffffffffffffffffffffffffffffff1916600160a060020a0383161790555b50565b60045481565b60008082600160a060020a0316638da5cb5b6000604051602001526040518163ffffffff1660e060020a028152600401602060405180830381600087803b151561072457600080fd5b6102c65a03f1151561073557600080fd5b5050506040518051915050600160a060020a0381166346e361b73060006040516020015260405160e060020a63ffffffff8416028152600160a060020a039091166004820152602401602060405180830381600087803b151561079757600080fd5b6102c65a03f115156107a857600080fd5b5050506040518051949350505050565b606060405190810160409081526000808352602083018190529082015290565b602060405190810160405260008152905600a165627a7a7230582062ccff52df146ebd8b3a829b288fd50499cf154d942d81f357d752c1bcf38f090029",
  "source": "pragma solidity ^0.4.18;\n\nimport \"./UniversalScheme.sol\";\n\n/**\n * @title A universal organization registry.\n * @dev Organizations can use this scheme to open a registry.\n * Other organizations can then add and promote themselves on this registry.\n */\n\n\ncontract OrganizationRegister is UniversalScheme {\n    // Struct holding the data for each organization\n    struct Organization {\n        bool isRegistered;\n        mapping(address=>uint) registry;\n    }\n\n    struct Parameters {\n        uint fee;\n        StandardToken token;\n        address beneficiary;\n    }\n\n    // A mapping from thr organization (Avatar) address to the saved data of the organization:\n    mapping(address=>Organization) organizations;\n\n    mapping(bytes32=>Parameters) parameters;\n\n    event OrgAdded( address indexed _registry, address indexed _org);\n    event Promotion( address indexed _registry, address indexed _org, uint _amount);\n\n    // Constructor, updating the initial prarmeters:\n    function OrganizationRegister(StandardToken _nativeToken, uint _fee, address _beneficiary) public {\n        updateParameters(_nativeToken, _fee, _beneficiary, bytes32(0));\n    }\n\n    /**\n    * @dev hash the parameters, save them if necessary, and return the hash value\n    */\n    function setParameters(StandardToken _token, uint _fee, address _beneficiary) public returns(bytes32) {\n        bytes32 paramsHash = getParametersHash(_token, _fee, _beneficiary);\n        if (parameters[paramsHash].token == address(0)) {\n            parameters[paramsHash].token = _token;\n            parameters[paramsHash].fee = _fee;\n            parameters[paramsHash].beneficiary = _beneficiary;\n        }\n        return paramsHash;\n    }\n\n    // The format of the hashing of the parameters:\n    function getParametersHash(StandardToken _token, uint _fee, address _beneficiary)\n    public pure returns(bytes32)\n    {\n        return (keccak256(_token, _fee, _beneficiary));\n    }\n\n    // Adding an organization to the universal scheme:\n    function registerOrganization(Avatar _avatar) public {\n        // Pay fees for using scheme:\n        if ((fee > 0) && (! organizations[_avatar].isRegistered)) {\n            nativeToken.transferFrom(_avatar, beneficiary, fee);\n        }\n\n        Organization memory org;\n        org.isRegistered = true;\n        organizations[_avatar] = org;\n    }\n\n    // Adding or promoting an organization on the registry.\n    function addOrPromoteOrg(Avatar _avatar, address _record, uint _amount) public {\n        Organization storage org = organizations[_avatar];\n        Parameters memory params = parameters[getParametersFromController(_avatar)];\n        require(org.isRegistered); // Check org is registred to use this universal scheme.\n\n        // Pay promotion, if the org was not listed the minimum is the fee:\n        if ((org.registry[_record] == 0) && (_amount < params.fee) ) {\n            revert();\n        }\n\n        params.token.transferFrom(msg.sender, params.beneficiary, _amount);\n        if (org.registry[_record] == 0)\n          OrgAdded(_avatar, _record);\n        org.registry[_record] += _amount;\n        Promotion(_avatar, _record, _amount);\n    }\n}\n",
  "sourcePath": "/Users/tibet/Dev/Emergence/daostack/contracts/universalSchemes/OrganizationRegister.sol",
  "compiler": {
    "name": "solc",
    "version": "0.4.18+commit.9cf6e910.Emscripten.clang"
  },
  "schemaVersion": "1.0.1",
  "updatedAt": "2017-12-08T01:15:38.755Z"
}