{
  "contractName": "Ownable",
  "abi": [
    {
      "constant": true,
      "inputs": [],
      "name": "owner",
      "outputs": [
        {
          "name": "",
          "type": "address"
        }
      ],
      "payable": false,
      "stateMutability": "view",
      "type": "function"
    },
    {
      "constant": false,
      "inputs": [
        {
          "name": "newOwner",
          "type": "address"
        }
      ],
      "name": "transferOwnership",
      "outputs": [],
      "payable": false,
      "stateMutability": "nonpayable",
      "type": "function"
    },
    {
      "inputs": [],
      "payable": false,
      "stateMutability": "nonpayable",
      "type": "constructor"
    }
  ],
  "bytecode": "0x6060604052341561000f57600080fd5b60008054600160a060020a033316600160a060020a03199091161790556101268061003b6000396000f30060606040526004361060485763ffffffff7c01000000000000000000000000000000000000000000000000000000006000350416638da5cb5b8114604d578063f2fde38b146079575b600080fd5b3415605757600080fd5b605d6097565b604051600160a060020a03909116815260200160405180910390f35b3415608357600080fd5b6095600160a060020a036004351660a6565b005b600054600160a060020a031681565b60005433600160a060020a0390811691161460c057600080fd5b600160a060020a0381161560f7576000805473ffffffffffffffffffffffffffffffffffffffff1916600160a060020a0383161790555b505600a165627a7a72305820d3e6ae9a2dc835db5f3ced3d79242c9183607d12ffef9a4d44e7039bc4591d150029",
  "source": "pragma solidity ^0.4.11;\n\n\n/**\n * @title Ownable\n * @dev The Ownable contract has an owner address, and provides basic authorization control\n * functions, this simplifies the implementation of \"user permissions\".\n */\ncontract Ownable {\n  address public owner;\n\n\n  /**\n   * @dev The Ownable constructor sets the original `owner` of the contract to the sender\n   * account.\n   */\n  function Ownable() {\n    owner = msg.sender;\n  }\n\n\n  /**\n   * @dev Throws if called by any account other than the owner.\n   */\n  modifier onlyOwner() {\n    require(msg.sender == owner);\n    _;\n  }\n\n\n  /**\n   * @dev Allows the current owner to transfer control of the contract to a newOwner.\n   * @param newOwner The address to transfer ownership to.\n   */\n  function transferOwnership(address newOwner) onlyOwner {\n    if (newOwner != address(0)) {\n      owner = newOwner;\n    }\n  }\n\n}\n",
  "sourcePath": "zeppelin-solidity/contracts/ownership/Ownable.sol",
  "compiler": {
    "name": "solc",
    "version": "0.4.18+commit.9cf6e910.Emscripten.clang"
  },
  "schemaVersion": "1.0.1",
  "updatedAt": "2017-12-01T22:18:41.024Z"
}