{
  "contractName": "Reputation",
  "abi": [
    {
      "constant": true,
      "inputs": [],
      "name": "totalSupply",
      "outputs": [
        {
          "name": "",
          "type": "uint256"
        }
      ],
      "payable": false,
      "stateMutability": "view",
      "type": "function"
    },
    {
      "constant": true,
      "inputs": [],
      "name": "decimals",
      "outputs": [
        {
          "name": "",
          "type": "uint256"
        }
      ],
      "payable": false,
      "stateMutability": "view",
      "type": "function"
    },
    {
      "constant": true,
      "inputs": [],
      "name": "owner",
      "outputs": [
        {
          "name": "",
          "type": "address"
        }
      ],
      "payable": false,
      "stateMutability": "view",
      "type": "function"
    },
    {
      "constant": false,
      "inputs": [
        {
          "name": "_to",
          "type": "address"
        },
        {
          "name": "_amount",
          "type": "uint256"
        }
      ],
      "name": "setReputation",
      "outputs": [
        {
          "name": "",
          "type": "bool"
        }
      ],
      "payable": false,
      "stateMutability": "nonpayable",
      "type": "function"
    },
    {
      "constant": true,
      "inputs": [
        {
          "name": "_owner",
          "type": "address"
        }
      ],
      "name": "reputationOf",
      "outputs": [
        {
          "name": "balance",
          "type": "uint256"
        }
      ],
      "payable": false,
      "stateMutability": "view",
      "type": "function"
    },
    {
      "constant": false,
      "inputs": [
        {
          "name": "newOwner",
          "type": "address"
        }
      ],
      "name": "transferOwnership",
      "outputs": [],
      "payable": false,
      "stateMutability": "nonpayable",
      "type": "function"
    },
    {
      "constant": false,
      "inputs": [
        {
          "name": "_to",
          "type": "address"
        },
        {
          "name": "_amount",
          "type": "int256"
        }
      ],
      "name": "mint",
      "outputs": [
        {
          "name": "",
          "type": "bool"
        }
      ],
      "payable": false,
      "stateMutability": "nonpayable",
      "type": "function"
    },
    {
      "inputs": [],
      "payable": false,
      "stateMutability": "nonpayable",
      "type": "constructor"
    },
    {
      "anonymous": false,
      "inputs": [
        {
          "indexed": true,
          "name": "to",
          "type": "address"
        },
        {
          "indexed": false,
          "name": "amount",
          "type": "int256"
        }
      ],
      "name": "Mint",
      "type": "event"
    }
  ],
  "bytecode": "0x60606040526012600355341561001457600080fd5b60008054600160a060020a033316600160a060020a0319909116811782558152600160205260408120819055600255610414806100526000396000f3006060604052600436106100825763ffffffff7c010000000000000000000000000000000000000000000000000000000060003504166318160ddd8114610087578063313ce567146100ac5780638da5cb5b146100bf578063b120c16a146100ee578063db89c04414610124578063f2fde38b14610143578063fd9bf3aa14610164575b600080fd5b341561009257600080fd5b61009a610186565b60405190815260200160405180910390f35b34156100b757600080fd5b61009a61018c565b34156100ca57600080fd5b6100d2610192565b604051600160a060020a03909116815260200160405180910390f35b34156100f957600080fd5b610110600160a060020a03600435166024356101a1565b604051901515815260200160405180910390f35b341561012f57600080fd5b61009a600160a060020a0360043516610222565b341561014e57600080fd5b610162600160a060020a036004351661023d565b005b341561016f57600080fd5b610110600160a060020a0360043516602435610293565b60025481565b60035481565b600054600160a060020a031681565b6000805433600160a060020a039081169116146101bd57600080fd5b600160a060020a0383166000908152600160205260409020546002546101fa9184916101ee9163ffffffff6103c016565b9063ffffffff6103d216565b60025550600160a060020a038216600090815260016020819052604090912082905592915050565b600160a060020a031660009081526001602052604090205490565b60005433600160a060020a0390811691161461025857600080fd5b600160a060020a03811615610290576000805473ffffffffffffffffffffffffffffffffffffffff1916600160a060020a0383161790555b50565b60008054819033600160a060020a039081169116146102b157600080fd5b60008312610319575060025482906102cf908263ffffffff6103d216565b600255600160a060020a0384166000908152600160205260409020546102fb908263ffffffff6103d216565b600160a060020a038516600090815260016020526040902055610379565b50600254600019830290610333908263ffffffff6103c016565b600255600160a060020a03841660009081526001602052604090205461035f908263ffffffff6103c016565b600160a060020a0385166000908152600160205260409020555b83600160a060020a03167f6f734b566c5e1cb976d9c7fba184b96a698a18931dd345168b16db217f8df0dd8460405190815260200160405180910390a25060019392505050565b6000828211156103cc57fe5b50900390565b6000828201838110156103e157fe5b93925050505600a165627a7a7230582027990152253c43ba27bc3645e0b4b4884ab56b062a29d15eac828af2e05d4f300029",
  "source": "pragma solidity ^0.4.18;\n\nimport \"zeppelin-solidity/contracts/ownership/Ownable.sol\";\nimport \"zeppelin-solidity/contracts/math/SafeMath.sol\";\n\n\n/**\n * @title Simple static reputation storage\n * @dev The reputation is represented by the owner of the contract\n * which is usually the controller's address\n */\n\ncontract Reputation is Ownable {\n    using SafeMath for uint;\n\n    mapping (address => uint256) balances;\n    uint256 public totalSupply;\n    uint public decimals = 18;\n\n    event Mint(address indexed to, int256 amount);\n\n    /**\n    * @dev the constructor initiate a reputation system with no supply at all\n    */\n    function Reputation() public {\n        balances[msg.sender] = 0;\n        totalSupply = 0;\n    }\n\n    /**\n    * @dev return the reputation amount of a given owner\n    * @param _owner an address of the owner which we want to get his reputation\n    */\n    function reputationOf(address _owner) public constant returns (uint256 balance) {\n        return balances[_owner];\n    }\n\n    /**\n    * @dev adding/reducing reputation of a given address, updating the total supply,\n    * and triggering an event of the operation\n    * @param _to the address which we gives/takes reputation amount\n    * @param _amount the reputation amount to be added/reduced\n    * @return bool which represents a successful of the function\n    */\n    function mint(address _to, int256 _amount) public onlyOwner returns (bool) {\n        // create new tokens and add them to the given account\n        uint absAmount; // allow to reduce reputation also for non owner\n        if ( _amount >= 0 ) {\n            absAmount = uint(_amount);\n            totalSupply = totalSupply.add(absAmount);\n            balances[_to] = balances[_to].add(absAmount);\n        } else {\n            absAmount = uint((-1)*_amount);\n            totalSupply = totalSupply.sub(absAmount);\n            balances[_to] = balances[_to].sub(absAmount);\n        }\n        Mint(_to, _amount);\n        return true;\n    }\n\n    /**\n    * @dev setting reputation amount for a given address, updating the total supply as well\n    * @param _to the address which we set it's reputation amount\n    * @param _amount the new reputation amount to be setted\n    * @return bool which represents a success\n    */\n    function setReputation(address _to, uint256 _amount) public onlyOwner returns (bool) {\n        // set the balance of _to to _amount\n        totalSupply = (totalSupply.sub(balances[_to])).add(_amount);\n        balances[_to] = _amount;\n        return true;\n    }\n}\n",
  "sourcePath": "/Users/tibet/Dev/Emergence/daostack/contracts/controller/Reputation.sol",
  "compiler": {
    "name": "solc",
    "version": "0.4.18+commit.9cf6e910.Emscripten.clang"
  },
  "schemaVersion": "1.0.1",
  "updatedAt": "2017-12-08T01:15:38.696Z"
}