{
  "contractName": "SchemeRegistrar",
  "abi": [
    {
      "constant": true,
      "inputs": [
        {
          "name": "",
          "type": "bytes32"
        }
      ],
      "name": "parameters",
      "outputs": [
        {
          "name": "voteRegisterParams",
          "type": "bytes32"
        },
        {
          "name": "voteRemoveParams",
          "type": "bytes32"
        },
        {
          "name": "intVote",
          "type": "address"
        }
      ],
      "payable": false,
      "stateMutability": "view",
      "type": "function"
    },
    {
      "constant": false,
      "inputs": [
        {
          "name": "_voteRegisterParams",
          "type": "bytes32"
        },
        {
          "name": "_voteRemoveParams",
          "type": "bytes32"
        },
        {
          "name": "_intVote",
          "type": "address"
        }
      ],
      "name": "setParameters",
      "outputs": [
        {
          "name": "",
          "type": "bytes32"
        }
      ],
      "payable": false,
      "stateMutability": "nonpayable",
      "type": "function"
    },
    {
      "constant": false,
      "inputs": [
        {
          "name": "_avatar",
          "type": "address"
        },
        {
          "name": "_scheme",
          "type": "address"
        },
        {
          "name": "_parametersHash",
          "type": "bytes32"
        },
        {
          "name": "_isRegistering",
          "type": "bool"
        },
        {
          "name": "_tokenFee",
          "type": "address"
        },
        {
          "name": "_fee",
          "type": "uint256"
        },
        {
          "name": "_autoRegister",
          "type": "bool"
        }
      ],
      "name": "proposeScheme",
      "outputs": [
        {
          "name": "",
          "type": "bytes32"
        }
      ],
      "payable": false,
      "stateMutability": "nonpayable",
      "type": "function"
    },
    {
      "constant": false,
      "inputs": [
        {
          "name": "_proposalId",
          "type": "bytes32"
        },
        {
          "name": "_avatar",
          "type": "address"
        },
        {
          "name": "_param",
          "type": "int256"
        }
      ],
      "name": "execute",
      "outputs": [
        {
          "name": "",
          "type": "bool"
        }
      ],
      "payable": false,
      "stateMutability": "nonpayable",
      "type": "function"
    },
    {
      "constant": true,
      "inputs": [],
      "name": "beneficiary",
      "outputs": [
        {
          "name": "",
          "type": "address"
        }
      ],
      "payable": false,
      "stateMutability": "view",
      "type": "function"
    },
    {
      "constant": false,
      "inputs": [
        {
          "name": "_nativeToken",
          "type": "address"
        },
        {
          "name": "_fee",
          "type": "uint256"
        },
        {
          "name": "_beneficiary",
          "type": "address"
        },
        {
          "name": "_hashedParameters",
          "type": "bytes32"
        }
      ],
      "name": "updateParameters",
      "outputs": [],
      "payable": false,
      "stateMutability": "nonpayable",
      "type": "function"
    },
    {
      "constant": false,
      "inputs": [
        {
          "name": "_avatar",
          "type": "address"
        },
        {
          "name": "_scheme",
          "type": "address"
        }
      ],
      "name": "proposeToRemoveScheme",
      "outputs": [
        {
          "name": "",
          "type": "bytes32"
        }
      ],
      "payable": false,
      "stateMutability": "nonpayable",
      "type": "function"
    },
    {
      "constant": true,
      "inputs": [
        {
          "name": "",
          "type": "address"
        }
      ],
      "name": "organizations",
      "outputs": [
        {
          "name": "isRegistered",
          "type": "bool"
        }
      ],
      "payable": false,
      "stateMutability": "view",
      "type": "function"
    },
    {
      "constant": true,
      "inputs": [
        {
          "name": "_voteRegisterParams",
          "type": "bytes32"
        },
        {
          "name": "_voteRemoveParams",
          "type": "bytes32"
        },
        {
          "name": "_intVote",
          "type": "address"
        }
      ],
      "name": "getParametersHash",
      "outputs": [
        {
          "name": "",
          "type": "bytes32"
        }
      ],
      "payable": false,
      "stateMutability": "pure",
      "type": "function"
    },
    {
      "constant": true,
      "inputs": [],
      "name": "owner",
      "outputs": [
        {
          "name": "",
          "type": "address"
        }
      ],
      "payable": false,
      "stateMutability": "view",
      "type": "function"
    },
    {
      "constant": false,
      "inputs": [
        {
          "name": "_avatar",
          "type": "address"
        }
      ],
      "name": "registerOrganization",
      "outputs": [],
      "payable": false,
      "stateMutability": "nonpayable",
      "type": "function"
    },
    {
      "constant": true,
      "inputs": [
        {
          "name": "_avatar",
          "type": "address"
        }
      ],
      "name": "isRegistered",
      "outputs": [
        {
          "name": "",
          "type": "bool"
        }
      ],
      "payable": false,
      "stateMutability": "view",
      "type": "function"
    },
    {
      "constant": true,
      "inputs": [],
      "name": "fee",
      "outputs": [
        {
          "name": "",
          "type": "uint256"
        }
      ],
      "payable": false,
      "stateMutability": "view",
      "type": "function"
    },
    {
      "constant": true,
      "inputs": [],
      "name": "nativeToken",
      "outputs": [
        {
          "name": "",
          "type": "address"
        }
      ],
      "payable": false,
      "stateMutability": "view",
      "type": "function"
    },
    {
      "constant": false,
      "inputs": [
        {
          "name": "newOwner",
          "type": "address"
        }
      ],
      "name": "transferOwnership",
      "outputs": [],
      "payable": false,
      "stateMutability": "nonpayable",
      "type": "function"
    },
    {
      "constant": true,
      "inputs": [],
      "name": "hashedParameters",
      "outputs": [
        {
          "name": "",
          "type": "bytes32"
        }
      ],
      "payable": false,
      "stateMutability": "view",
      "type": "function"
    },
    {
      "inputs": [
        {
          "name": "_nativeToken",
          "type": "address"
        },
        {
          "name": "_fee",
          "type": "uint256"
        },
        {
          "name": "_beneficiary",
          "type": "address"
        }
      ],
      "payable": false,
      "stateMutability": "nonpayable",
      "type": "constructor"
    },
    {
      "anonymous": false,
      "inputs": [
        {
          "indexed": true,
          "name": "_avatar",
          "type": "address"
        },
        {
          "indexed": true,
          "name": "_proposalId",
          "type": "bytes32"
        },
        {
          "indexed": true,
          "name": "_intVoteInterface",
          "type": "address"
        },
        {
          "indexed": false,
          "name": "_scheme",
          "type": "address"
        },
        {
          "indexed": false,
          "name": "_parametersHash",
          "type": "bytes32"
        },
        {
          "indexed": false,
          "name": "_isRegistering",
          "type": "bool"
        },
        {
          "indexed": false,
          "name": "_tokenFee",
          "type": "address"
        },
        {
          "indexed": false,
          "name": "_fee",
          "type": "uint256"
        },
        {
          "indexed": false,
          "name": "_autoRegister",
          "type": "bool"
        }
      ],
      "name": "LogNewSchemeProposal",
      "type": "event"
    },
    {
      "anonymous": false,
      "inputs": [
        {
          "indexed": true,
          "name": "_avatar",
          "type": "address"
        },
        {
          "indexed": true,
          "name": "_proposalId",
          "type": "bytes32"
        },
        {
          "indexed": true,
          "name": "_intVoteInterface",
          "type": "address"
        },
        {
          "indexed": false,
          "name": "_scheme",
          "type": "address"
        }
      ],
      "name": "LogRemoveSchemeProposal",
      "type": "event"
    },
    {
      "anonymous": false,
      "inputs": [
        {
          "indexed": true,
          "name": "_avatar",
          "type": "address"
        },
        {
          "indexed": true,
          "name": "_proposalId",
          "type": "bytes32"
        }
      ],
      "name": "LogProposalExecuted",
      "type": "event"
    },
    {
      "anonymous": false,
      "inputs": [
        {
          "indexed": true,
          "name": "_avatar",
          "type": "address"
        },
        {
          "indexed": true,
          "name": "_proposalId",
          "type": "bytes32"
        }
      ],
      "name": "LogProposalDeleted",
      "type": "event"
    },
    {
      "anonymous": false,
      "inputs": [
        {
          "indexed": false,
          "name": "_avatar",
          "type": "address"
        }
      ],
      "name": "LogOrgRegistered",
      "type": "event"
    },
    {
      "anonymous": false,
      "inputs": [
        {
          "indexed": false,
          "name": "proposalId",
          "type": "bytes32"
        }
      ],
      "name": "LogNewProposal",
      "type": "event"
    }
  ],
  "bytecode": "0x6060604052341561000f57600080fd5b60405160608061147383398101604052808051919060200180519190602001805160008054600160a060020a03191633600160a060020a031617815590925061006b91508490849084906401000000006100738102610d2c1704565b5050506100c6565b60005433600160a060020a0390811691161461008e57600080fd5b60018054600160a060020a0319908116600160a060020a03968716179091556002939093556003805490931691909316179055600455565b61139e806100d56000396000f3006060604052600436106100cc5763ffffffff60e060020a6000350416630250680481146100d15780630a6687fd146101145780632d15dd501461014b578063310ce4e21461018857806338af3eed146101c15780634345a610146101f057806357b4c4601461021e5780635a1f74061461024357806377182261146102625780638da5cb5b1461028757806390be003c1461029a578063c3c5a547146102b9578063ddca3f43146102d8578063e1758bd8146102eb578063f2fde38b146102fe578063f98e87ba1461031d575b600080fd5b34156100dc57600080fd5b6100e7600435610330565b6040519283526020830191909152600160a060020a03166040808301919091526060909101905180910390f35b341561011f57600080fd5b610139600435602435600160a060020a036044351661035a565b60405190815260200160405180910390f35b341561015657600080fd5b610139600160a060020a03600435811690602435811690604435906064351515906084351660a43560c43515156103aa565b341561019357600080fd5b6101ad600435600160a060020a0360243516604435610741565b604051901515815260200160405180910390f35b34156101cc57600080fd5b6101d4610d1d565b604051600160a060020a03909116815260200160405180910390f35b34156101fb57600080fd5b61021c600160a060020a036004358116906024359060443516606435610d2c565b005b341561022957600080fd5b610139600160a060020a0360043581169060243516610d7f565b341561024e57600080fd5b6101ad600160a060020a0360043516610ffc565b341561026d57600080fd5b610139600435602435600160a060020a0360443516611011565b341561029257600080fd5b6101d461105c565b34156102a557600080fd5b61021c600160a060020a036004351661106b565b34156102c457600080fd5b6101ad600160a060020a03600435166111a5565b34156102e357600080fd5b6101396111c3565b34156102f657600080fd5b6101d46111c9565b341561030957600080fd5b61021c600160a060020a03600435166111d8565b341561032857600080fd5b610139611221565b600660205260009081526040902080546001820154600290920154909190600160a060020a031683565b600080610368858585611011565b60008181526006602052604090209586556001860194909455505060029092018054600160a060020a031916600160a060020a03939093169290921790915590565b60006103b4611304565b6103bc611316565b60006103c6611336565b600160a060020a038c166000908152600560209081526040918290209151908101604052905460ff161515815293508351151561040257600080fd5b6006600061040f8e611227565b815260208101919091526040908101600020906060905190810160409081528254825260018301546020830152600290920154600160a060020a0316918101918252935051600160a060020a03166388737b5e600285518f3060006040516020015260405160e060020a63ffffffff871602815260048101949094526024840192909252600160a060020a039081166044840152166064820152608401602060405180830381600087803b15156104c557600080fd5b6102c65a03f115156104d657600080fd5b5050506040518051600160a060020a038e16600090815260056020908152604080832084845260010190915290206002015490935015905061051757600080fd5b60e06040519081016040908152600160a060020a03808e168352602083018d90526001828401528b151560608401528a16608083015260a0820189905287151560c0830152909150830151600160a060020a031682600019168d600160a060020a03167fa3d27ea573e5dd5b65d4850ff4d0cb2e1f8633c148ff9c19040e1b6c609c03868e8e8e8e8e8e604051600160a060020a03968716815260208101959095529215156040808601919091529190941660608401526080830193909352151560a082015260c001905180910390a4600160a060020a038c1660009081526005602090815260408083208584526001019091529020819081518154600160a060020a031916600160a060020a03919091161781556020820151600182015560408201518160020155606082015160038201805460ff191691151591909117905560808201518160030160016101000a815481600160a060020a030219169083600160a060020a0316021790555060a0820151816004015560c0820151600591909101805460ff1916911515919091179055506040830151600160a060020a031663339e23d18360013360006040516020015260405160e060020a63ffffffff861602815260048101939093526024830191909152600160a060020a03166044820152606401602060405180830381600087803b151561071657600080fd5b6102c65a03f1151561072757600080fd5b505050604051805150919c9b505050505050505050505050565b60008061074c611336565b33600160a060020a03166006600061076388611227565b8152602081019190915260400160002060020154600160a060020a03161461078a57600080fd5b6001841461083e57600160a060020a03851660008181526005602081815260408084208b855260019081019092528084208054600160a060020a03191681559182018490556002820184905560038201805474ffffffffffffffffffffffffffffffffffffffffff19169055600482019390935501805460ff191690558791907f1f9b6fe94f8389fd9936094c2246b3cb2b4392e59e72e915e70e6a08a47a1fb9905160405180910390a360019250610d14565b84600160a060020a0316638da5cb5b6000604051602001526040518163ffffffff1660e060020a028152600401602060405180830381600087803b151561088457600080fd5b6102c65a03f1151561089557600080fd5b5050506040518051600160a060020a03871660009081526005602090815260408083208b84526001019091529081902091945090915060e0905190810160409081528254600160a060020a039081168352600184015460208401526002840154918301918252600384015460ff808216151560608601526101009091049091166080840152600484015460a0840152600590930154909216151560c082015291505160011415610be1578060a00151156109e25781600160a060020a03166379c6ad9e826080015183518460a0015160006040516020015260405160e060020a63ffffffff8616028152600160a060020a0393841660048201529190921660248201526044810191909152606401602060405180830381600087803b15156109bc57600080fd5b6102c65a03f115156109cd57600080fd5b5050506040518051905015156109e257600080fd5b80606001511515610aa657600160a060020a03821663a34abaa88251836020015160e060020a60006040516020015260405160e060020a63ffffffff8616028152600160a060020a03909316600484015260248301919091527bffffffffffffffffffffffffffffffffffffffffffffffffffffffff19166044820152606401602060405180830381600087803b1515610a7b57600080fd5b6102c65a03f11515610a8c57600080fd5b505050604051805190501515610aa157600080fd5b610b73565b600160a060020a03821663a34abaa8825183602001517c030000000000000000000000000000000000000000000000000000000060006040516020015260405160e060020a63ffffffff8616028152600160a060020a03909316600484015260248301919091527bffffffffffffffffffffffffffffffffffffffffffffffffffffffff19166044820152606401602060405180830381600087803b1515610b4d57600080fd5b6102c65a03f11515610b5e57600080fd5b505050604051805190501515610b7357600080fd5b8060c0015115610be1578051600160a060020a03166390be003c8660405160e060020a63ffffffff8416028152600160a060020a039091166004820152602401600060405180830381600087803b1515610bcc57600080fd5b6102c65a03f11515610bdd57600080fd5b5050505b806040015160021415610c6c57600160a060020a03821663653915e5825160006040516020015260405160e060020a63ffffffff8416028152600160a060020a039091166004820152602401602060405180830381600087803b1515610c4657600080fd5b6102c65a03f11515610c5757600080fd5b505050604051805190501515610c6c57600080fd5b600160a060020a03851660008181526005602081815260408084208b855260019081019092528084208054600160a060020a03191681559182018490556002820184905560038201805474ffffffffffffffffffffffffffffffffffffffffff19169055600482019390935501805460ff191690558791907f1f9b6fe94f8389fd9936094c2246b3cb2b4392e59e72e915e70e6a08a47a1fb9905160405180910390a3600192505b50509392505050565b600354600160a060020a031681565b60005433600160a060020a03908116911614610d4757600080fd5b60018054600160a060020a0319908116600160a060020a03968716179091556002939093556003805490931691909316179055600455565b6000610d89611304565b6000610d93611316565b600160a060020a03861660009081526005602090815260408083208392909151908101604052905460ff1615158152945084511515610dd157600080fd5b610dda88611227565b600081815260066020526040908190209195506060905190810160409081528254825260018301546020830152600290920154600160a060020a0316918101918252935051915081600160a060020a03166388737b5e600285602001518b3060006040516020015260405160e060020a63ffffffff871602815260048101949094526024840192909252600160a060020a039081166044840152166064820152608401602060405180830381600087803b1515610e9657600080fd5b6102c65a03f11515610ea757600080fd5b5050506040518051600160a060020a038a166000908152600560209081526040808320848452600101909152902060020154909250159050610ee857600080fd5b600160a060020a038881166000818152600560209081526040808320868452600101909152908190206002808201558054600160a060020a0319168b8516179055918416918391907f68953fb1bf1b1aeeaaa5832742ffcb54530b6c3d63a03a1cb09a6b69dae43446908b9051600160a060020a03909116815260200160405180910390a481600160a060020a031663339e23d18260013360006040516020015260405160e060020a63ffffffff861602815260048101939093526024830191909152600160a060020a03166044820152606401602060405180830381600087803b1515610fd557600080fd5b6102c65a03f11515610fe657600080fd5b5050506040518051509098975050505050505050565b60056020526000908152604090205460ff1681565b6000808484846040519283526020830191909152600160a060020a03166c01000000000000000000000000026040808301919091526054909101905190819003902095945050505050565b600054600160a060020a031681565b611073611304565b600060025411801561109e5750600160a060020a03821660009081526005602052604090205460ff16155b1561113757600154600354600254600160a060020a03928316926323b872dd92869291169060006040516020015260405160e060020a63ffffffff8616028152600160a060020a0393841660048201529190921660248201526044810191909152606401602060405180830381600087803b151561111b57600080fd5b6102c65a03f1151561112c57600080fd5b505050604051805150505b60018152600160a060020a038216600090815260056020526040902081908151815460ff1916901515179055507fe9db4686ffcf478f0c9aa617f5d4f8ad2672b75414d7bea26368c6f65fb418df82604051600160a060020a03909116815260200160405180910390a15050565b600160a060020a031660009081526005602052604090205460ff1690565b60025481565b600154600160a060020a031681565b60005433600160a060020a039081169116146111f357600080fd5b600160a060020a0381161561121e5760008054600160a060020a031916600160a060020a0383161790555b50565b60045481565b60008082600160a060020a0316638da5cb5b6000604051602001526040518163ffffffff1660e060020a028152600401602060405180830381600087803b151561127057600080fd5b6102c65a03f1151561128157600080fd5b5050506040518051915050600160a060020a0381166346e361b73060006040516020015260405160e060020a63ffffffff8416028152600160a060020a039091166004820152602401602060405180830381600087803b15156112e357600080fd5b6102c65a03f115156112f457600080fd5b5050506040518051949350505050565b60206040519081016040526000815290565b606060405190810160409081526000808352602083018190529082015290565b60e06040519081016040908152600080835260208301819052908201819052606082018190526080820181905260a0820181905260c0820152905600a165627a7a72305820ba0fc7e5a9af1c745fbc161d4b07f02cdd49cd45cf6859261e13fb0f6cfebb3a0029",
  "source": "pragma solidity ^0.4.18;\n\nimport \"../VotingMachines/IntVoteInterface.sol\";\nimport \"./UniversalScheme.sol\";\n\n\n/**\n * @title A registrar for Schemes for organizations\n * @dev The SchemeRegistrar is used for registering and unregistering schemes at organizations\n */\n\ncontract SchemeRegistrar is UniversalScheme {\n    event LogNewSchemeProposal(\n        address indexed _avatar,\n        bytes32 indexed _proposalId,\n        address indexed _intVoteInterface,\n        address _scheme,\n        bytes32 _parametersHash,\n        bool _isRegistering,\n        StandardToken _tokenFee,\n        uint _fee,\n        bool _autoRegister\n    );\n    event LogRemoveSchemeProposal(address indexed _avatar,\n        bytes32 indexed _proposalId,\n        address indexed _intVoteInterface,\n        address _scheme\n    );\n    event LogProposalExecuted(address indexed _avatar, bytes32 indexed _proposalId);\n    event LogProposalDeleted(address indexed _avatar, bytes32 indexed _proposalId);\n\n    // a SchemeProposal is a  proposal to add or remove a scheme to/from the an orgaization\n    struct SchemeProposal {\n        address scheme; //\n        bytes32 parametersHash;\n        uint proposalType; // 1: add a schme, 2: remove a scheme.\n        bool isRegistering;\n        StandardToken tokenFee;\n        uint fee;\n        bool autoRegister;\n    }\n\n    // For each organization, the registrar records the proposals made for this organization\n    struct Organization {\n        bool isRegistered;\n        mapping(bytes32=>SchemeProposal) proposals;\n    }\n    // A mapping from thr organization (Avatar) address to the saved data of the organization:\n    mapping(address=>Organization) public organizations;\n\n    // A mapping from hashes to parameters (use to store a particular configuration on the controller)\n    struct Parameters {\n        bytes32 voteRegisterParams;\n        bytes32 voteRemoveParams;\n        IntVoteInterface intVote;\n    }\n    mapping(bytes32=>Parameters) public parameters;\n\n    /**\n    * @dev The constructor\n    * @param _nativeToken a Token that is used for paying fees for registering\n    * @param _fee the fee to pay\n    * @param _beneficiary to whom the fee is payed\n    */\n    function SchemeRegistrar(StandardToken _nativeToken, uint _fee, address _beneficiary) public {\n        updateParameters(_nativeToken, _fee, _beneficiary, bytes32(0));\n    }\n\n    /**\n    * @dev hash the parameters, save them if necessary, and return the hash value\n    */\n    function setParameters(\n        bytes32 _voteRegisterParams,\n        bytes32 _voteRemoveParams,\n        IntVoteInterface _intVote\n    ) public returns(bytes32)\n    {\n        bytes32 paramsHash = getParametersHash(_voteRegisterParams, _voteRemoveParams, _intVote);\n        parameters[paramsHash].voteRegisterParams = _voteRegisterParams;\n        parameters[paramsHash].voteRemoveParams = _voteRemoveParams;\n        parameters[paramsHash].intVote = _intVote;\n        return paramsHash;\n    }\n\n    function getParametersHash(\n        bytes32 _voteRegisterParams,\n        bytes32 _voteRemoveParams,\n        IntVoteInterface _intVote\n    ) public pure returns(bytes32)\n    {\n        bytes32 paramsHash = (keccak256(_voteRegisterParams, _voteRemoveParams, _intVote));\n        return paramsHash;\n    }\n\n    /**\n    * @dev add or update an organisation to this register.\n    * @dev the sender pays a fee (in nativeToken) for using this function, and must approve it before calling the transaction\n    * @param _avatar the address of the organization\n    */\n    function registerOrganization(Avatar _avatar) public {\n        // Pay fees for using scheme\n        if ((fee > 0) && (! organizations[_avatar].isRegistered)) {\n            nativeToken.transferFrom(_avatar, beneficiary, fee);\n        }\n\n        // update the organization in the organizations mapping\n        Organization memory org;\n        org.isRegistered = true;\n        organizations[_avatar] = org;\n        LogOrgRegistered(_avatar);\n    }\n\n    function isRegistered(address _avatar) public constant returns(bool) {\n        return organizations[_avatar].isRegistered;\n    }\n\n    /**\n    * @dev create a proposal to register a scheme\n    * @param _scheme the address of the scheme to be registered\n    * @param _parametersHash a hash of the configuration of the _scheme\n    * @param _isRegistering a boolean represent if the scheme is a registering scheme\n    *      that can register other schemes\n    * @param _tokenFee a token that will be used to pay any fees needed for registering the avatar\n    * @param _fee the fee to be paid\n    * @param _avatar the address of the organization the scheme will be registered for\n    * @return a proposal Id\n    * @dev NB: not only proposes the vote, but also votes for it\n    */\n    // TODO: check if we cannot derive isRegistering from the _scheme itself\n    // TODO: simplify this by removing the _tokenFee and fee params, which can be derived from\n    // the scheme (i.e. are equal to _scheme.fee() and scheme.somethingToken())\n    function proposeScheme(\n        Avatar _avatar,\n        address _scheme,\n        bytes32 _parametersHash,\n        bool _isRegistering,\n        StandardToken _tokenFee,\n        uint _fee,\n        bool _autoRegister\n    ) public returns(bytes32)\n    {\n        Organization memory org = organizations[_avatar];\n        // Check if org is registered to use this universal scheme\n        require(org.isRegistered);\n\n        // propose\n        Parameters memory controllerParams = parameters[getParametersFromController(_avatar)];\n\n        bytes32 proposalId = controllerParams.intVote.propose(2, controllerParams.voteRegisterParams, _avatar, ExecutableInterface(this));\n\n        if (organizations[_avatar].proposals[proposalId].proposalType != 0) {\n            revert();\n        }\n\n        SchemeProposal memory proposal = SchemeProposal({\n            scheme: _scheme,\n            parametersHash: _parametersHash,\n            proposalType: 1,\n            isRegistering: _isRegistering,\n            tokenFee: _tokenFee,\n            fee: _fee,\n            autoRegister: _autoRegister\n        });\n        LogNewSchemeProposal(\n            _avatar,\n            proposalId,\n            controllerParams.intVote,\n            _scheme, _parametersHash,\n            _isRegistering,\n            _tokenFee,\n            _fee,\n            _autoRegister\n        );\n        organizations[_avatar].proposals[proposalId] = proposal;\n\n        // vote for this proposal\n        controllerParams.intVote.ownerVote(proposalId, 1, msg.sender); // Automatically votes `yes` in the name of the opener.\n        return proposalId;\n    }\n\n    /**\n    * @dev propose to remove a scheme for a controller\n    * @param _avatar the address of the controller from which we want to remove a scheme\n    * @param _scheme the address of the scheme we want to remove\n    *\n    * NB: not only registers the proposal, but also votes for it\n    */\n    function proposeToRemoveScheme(Avatar _avatar, address _scheme) public returns(bytes32) {\n        Organization memory org = organizations[_avatar];\n\n        // Check if the orgazation is registred to use this universal scheme.\n        require(org.isRegistered);\n\n        bytes32 paramsHash = getParametersFromController(_avatar);\n        Parameters memory params = parameters[paramsHash];\n\n        IntVoteInterface intVote = params.intVote;\n        bytes32 proposalId = intVote.propose(2, params.voteRemoveParams, _avatar, ExecutableInterface(this));\n        if (organizations[_avatar].proposals[proposalId].proposalType != 0) {\n            revert();\n        }\n        organizations[_avatar].proposals[proposalId].proposalType = 2;\n        organizations[_avatar].proposals[proposalId].scheme = _scheme;\n        LogRemoveSchemeProposal(_avatar, proposalId, intVote, _scheme);\n        // vote for this proposal\n        intVote.ownerVote(proposalId, 1, msg.sender); // Automatically votes `yes` in the name of the opener.\n        return proposalId;\n    }\n\n    /**\n    * @dev execute a  proposal\n    * This method can only be called by the voting machine in which the vote is held.\n    * @param _proposalId the ID of the proposal in the voting machine\n    * @param _avatar address of the controller\n    * @param _param identifies the action to be taken\n    */\n    // TODO: this call can be simplified if we save the _avatar together with the proposal\n    function execute(bytes32 _proposalId, address _avatar, int _param) public returns(bool) {\n        // Check the caller is indeed the voting machine:\n        require(parameters[getParametersFromController(Avatar(_avatar))].intVote == msg.sender);\n\n        if (_param != 1) {\n            delete organizations[_avatar].proposals[_proposalId];\n            LogProposalExecuted(_avatar, _proposalId);\n            return true;\n        }\n        // Define controller and get the parmas:\n        Controller controller = Controller(Avatar(_avatar).owner());\n        SchemeProposal memory proposal = organizations[_avatar].proposals[_proposalId];\n\n        // Add a scheme:\n        if (proposal.proposalType == 1) {\n            if (proposal.fee != 0) {\n                if (!controller.externalTokenApprove(proposal.tokenFee, proposal.scheme, proposal.fee)) {\n                    revert();\n                }\n            }\n            if (proposal.isRegistering == false) {\n                if (!controller.registerScheme(proposal.scheme, proposal.parametersHash, bytes4(1))) {\n                    revert();\n                }\n            } else {\n                if (!controller.registerScheme(proposal.scheme, proposal.parametersHash, bytes4(3))) {\n                    revert();\n                }\n            }\n            if (proposal.autoRegister) {\n                UniversalScheme(proposal.scheme).registerOrganization(Avatar(_avatar));\n            }\n        }\n        // Remove a scheme:\n        if ( proposal.proposalType == 2 ) {\n            if (!controller.unregisterScheme(proposal.scheme)) {\n                revert();\n            }\n        }\n\n        delete organizations[_avatar].proposals[_proposalId];\n        LogProposalExecuted(_avatar, _proposalId);\n        return true;\n    }\n}\n",
  "sourcePath": "/Users/tibet/Dev/Emergence/daostack/contracts/universalSchemes/SchemeRegistrar.sol",
  "compiler": {
    "name": "solc",
    "version": "0.4.18+commit.9cf6e910.Emscripten.clang"
  },
  "schemaVersion": "1.0.1",
  "updatedAt": "2017-12-08T01:15:38.760Z"
}