{
  "contractName": "SimpleICO",
  "abi": [
    {
      "constant": false,
      "inputs": [
        {
          "name": "_cap",
          "type": "uint256"
        },
        {
          "name": "_price",
          "type": "uint256"
        },
        {
          "name": "_startBlock",
          "type": "uint256"
        },
        {
          "name": "_endBlock",
          "type": "uint256"
        },
        {
          "name": "_beneficiary",
          "type": "address"
        },
        {
          "name": "_admin",
          "type": "address"
        }
      ],
      "name": "setParameters",
      "outputs": [
        {
          "name": "",
          "type": "bytes32"
        }
      ],
      "payable": false,
      "stateMutability": "nonpayable",
      "type": "function"
    },
    {
      "constant": false,
      "inputs": [
        {
          "name": "_avatar",
          "type": "address"
        },
        {
          "name": "_beneficiary",
          "type": "address"
        }
      ],
      "name": "donate",
      "outputs": [
        {
          "name": "",
          "type": "uint256"
        }
      ],
      "payable": true,
      "stateMutability": "payable",
      "type": "function"
    },
    {
      "constant": true,
      "inputs": [],
      "name": "beneficiary",
      "outputs": [
        {
          "name": "",
          "type": "address"
        }
      ],
      "payable": false,
      "stateMutability": "view",
      "type": "function"
    },
    {
      "constant": false,
      "inputs": [
        {
          "name": "_nativeToken",
          "type": "address"
        },
        {
          "name": "_fee",
          "type": "uint256"
        },
        {
          "name": "_beneficiary",
          "type": "address"
        },
        {
          "name": "_hashedParameters",
          "type": "bytes32"
        }
      ],
      "name": "updateParameters",
      "outputs": [],
      "payable": false,
      "stateMutability": "nonpayable",
      "type": "function"
    },
    {
      "constant": true,
      "inputs": [
        {
          "name": "_avatar",
          "type": "address"
        }
      ],
      "name": "isActiveICO",
      "outputs": [
        {
          "name": "",
          "type": "bool"
        }
      ],
      "payable": false,
      "stateMutability": "view",
      "type": "function"
    },
    {
      "constant": true,
      "inputs": [
        {
          "name": "_cap",
          "type": "uint256"
        },
        {
          "name": "_price",
          "type": "uint256"
        },
        {
          "name": "_startBlock",
          "type": "uint256"
        },
        {
          "name": "_endBlock",
          "type": "uint256"
        },
        {
          "name": "_beneficiary",
          "type": "address"
        },
        {
          "name": "_admin",
          "type": "address"
        }
      ],
      "name": "getParametersHash",
      "outputs": [
        {
          "name": "",
          "type": "bytes32"
        }
      ],
      "payable": false,
      "stateMutability": "pure",
      "type": "function"
    },
    {
      "constant": true,
      "inputs": [
        {
          "name": "",
          "type": "address"
        }
      ],
      "name": "organizations",
      "outputs": [
        {
          "name": "paramsHash",
          "type": "bytes32"
        },
        {
          "name": "avatarContractICO",
          "type": "address"
        },
        {
          "name": "totalEthRaised",
          "type": "uint256"
        },
        {
          "name": "isHalted",
          "type": "bool"
        },
        {
          "name": "isRegistered",
          "type": "bool"
        }
      ],
      "payable": false,
      "stateMutability": "view",
      "type": "function"
    },
    {
      "constant": true,
      "inputs": [],
      "name": "owner",
      "outputs": [
        {
          "name": "",
          "type": "address"
        }
      ],
      "payable": false,
      "stateMutability": "view",
      "type": "function"
    },
    {
      "constant": false,
      "inputs": [
        {
          "name": "_avatar",
          "type": "address"
        }
      ],
      "name": "registerOrganization",
      "outputs": [],
      "payable": false,
      "stateMutability": "nonpayable",
      "type": "function"
    },
    {
      "constant": false,
      "inputs": [
        {
          "name": "_avatar",
          "type": "address"
        }
      ],
      "name": "haltICO",
      "outputs": [],
      "payable": false,
      "stateMutability": "nonpayable",
      "type": "function"
    },
    {
      "constant": true,
      "inputs": [],
      "name": "fee",
      "outputs": [
        {
          "name": "",
          "type": "uint256"
        }
      ],
      "payable": false,
      "stateMutability": "view",
      "type": "function"
    },
    {
      "constant": true,
      "inputs": [],
      "name": "nativeToken",
      "outputs": [
        {
          "name": "",
          "type": "address"
        }
      ],
      "payable": false,
      "stateMutability": "view",
      "type": "function"
    },
    {
      "constant": false,
      "inputs": [
        {
          "name": "_avatar",
          "type": "address"
        }
      ],
      "name": "resumeICO",
      "outputs": [],
      "payable": false,
      "stateMutability": "nonpayable",
      "type": "function"
    },
    {
      "constant": false,
      "inputs": [
        {
          "name": "newOwner",
          "type": "address"
        }
      ],
      "name": "transferOwnership",
      "outputs": [],
      "payable": false,
      "stateMutability": "nonpayable",
      "type": "function"
    },
    {
      "constant": true,
      "inputs": [],
      "name": "hashedParameters",
      "outputs": [
        {
          "name": "",
          "type": "bytes32"
        }
      ],
      "payable": false,
      "stateMutability": "view",
      "type": "function"
    },
    {
      "inputs": [
        {
          "name": "_nativeToken",
          "type": "address"
        },
        {
          "name": "_fee",
          "type": "uint256"
        },
        {
          "name": "_beneficiary",
          "type": "address"
        }
      ],
      "payable": false,
      "stateMutability": "nonpayable",
      "type": "constructor"
    },
    {
      "payable": false,
      "stateMutability": "nonpayable",
      "type": "fallback"
    },
    {
      "anonymous": false,
      "inputs": [
        {
          "indexed": true,
          "name": "organization",
          "type": "address"
        },
        {
          "indexed": true,
          "name": "_beneficiary",
          "type": "address"
        },
        {
          "indexed": false,
          "name": "_incomingEther",
          "type": "uint256"
        },
        {
          "indexed": true,
          "name": "_tokensAmount",
          "type": "uint256"
        }
      ],
      "name": "DonationReceived",
      "type": "event"
    },
    {
      "anonymous": false,
      "inputs": [
        {
          "indexed": false,
          "name": "_avatar",
          "type": "address"
        }
      ],
      "name": "LogOrgRegistered",
      "type": "event"
    },
    {
      "anonymous": false,
      "inputs": [
        {
          "indexed": false,
          "name": "proposalId",
          "type": "bytes32"
        }
      ],
      "name": "LogNewProposal",
      "type": "event"
    }
  ],
  "bytecode": "0x6060604052341561000f57600080fd5b60405160608061128383398101604052808051919060200180519190602001805160008054600160a060020a03191633600160a060020a031617815590925061006b915084908490849064010000000061007381026106d91704565b5050506100c6565b60005433600160a060020a0390811691161461008e57600080fd5b60018054600160a060020a0319908116600160a060020a03968716179091556002939093556003805490931691909316179055600455565b6111ae806100d56000396000f3006060604052600436106100c15763ffffffff60e060020a6000350416630d60993981146100d157806321bea7cc1461011457806338af3eed1461012e5780634345a6101461015d5780634474fe841461018b5780634eb09bf4146101be5780635a1f7406146101ef5780638da5cb5b1461024957806390be003c1461025c578063bdbb829d1461027b578063ddca3f431461029a578063e1758bd8146102ad578063e270bc81146102c0578063f2fde38b146102df578063f98e87ba146102fe575b34156100cc57600080fd5b600080fd5b34156100dc57600080fd5b610102600435602435604435606435600160a060020a0360843581169060a43516610311565b60405190815260200160405180910390f35b610102600160a060020a03600435811690602435166103aa565b341561013957600080fd5b6101416106ca565b604051600160a060020a03909116815260200160405180910390f35b341561016857600080fd5b610189600160a060020a0360043581169060243590604435166064356106d9565b005b341561019657600080fd5b6101aa600160a060020a0360043516610739565b604051901515815260200160405180910390f35b34156101c957600080fd5b610102600435602435604435606435600160a060020a0360843581169060a4351661087c565b34156101fa57600080fd5b61020e600160a060020a03600435166108e5565b604051948552600160a060020a03909316602085015260408085019290925215156060840152901515608083015260a0909101905180910390f35b341561025457600080fd5b610141610922565b341561026757600080fd5b610189600160a060020a0360043516610931565b341561028657600080fd5b610189600160a060020a0360043516610b67565b34156102a557600080fd5b610102610bc6565b34156102b857600080fd5b610141610bcc565b34156102cb57600080fd5b610189600160a060020a0360043516610bdb565b34156102ea57600080fd5b610189600160a060020a0360043516610c37565b341561030957600080fd5b610102610c8d565b60008061032288888888888861087c565b6000818152600660205260409020549091501561039f576000818152600660205260409020888155600181018890556002810187905560038101869055600481018054600160a060020a0380881673ffffffffffffffffffffffffffffffffffffffff199283161790925560059092018054918616919092161790555b979650505050505050565b60006103b4610dad565b6103bc610ddb565b600160a060020a03851660009081526005602052604080822082918291829160a090519081016040908152825482526001830154600160a060020a0316602083015260028301549082015260039091015460ff80821615156060840152610100909104161515608082015295506006600087518152602081019190915260409081016000209060c0905190810160409081528254825260018301546020830152600283015490820152600382015460608201526004820154600160a060020a03908116608083015260059092015490911660a0820152945061049d89610739565b15156104a857600080fd5b8560600151156104b757600080fd5b6104cd866040015186519063ffffffff610c9316565b341115610503576104ea866040015186519063ffffffff610c9316565b93506104fc348563ffffffff610c9316565b9250610507565b3493505b61051c8560200151859063ffffffff610ca516565b91508460800151600160a060020a031684156108fc0285604051600060405180830381858888f19350505050151561055357600080fd5b88600160a060020a0316638da5cb5b6000604051602001526040518163ffffffff1660e060020a028152600401602060405180830381600087803b151561059957600080fd5b6102c65a03f115156105aa57600080fd5b5050506040518051915050600160a060020a0381166310c5b328838a60006040516020015260405160e060020a63ffffffff85160281526004810192909252600160a060020a03166024820152604401602060405180830381600087803b151561061357600080fd5b6102c65a03f1151561062457600080fd5b50505060405180519050151561063957600080fd5b821561067057600160a060020a03881683156108fc0284604051600060405180830381858888f19350505050151561067057600080fd5b83866040018181510190525081600160a060020a03808a16908b167fce9409ee3dc10e35de83dda0f830e4a13935452188fe71a956b850ecb839425f8760405190815260200160405180910390a450979650505050505050565b600354600160a060020a031681565b60005433600160a060020a039081169116146106f457600080fd5b6001805473ffffffffffffffffffffffffffffffffffffffff19908116600160a060020a03968716179091556002939093556003805490931691909316179055600455565b6000610743610dad565b61074b610ddb565b600160a060020a038416600090815260056020526040908190209060a090519081016040908152825482526001830154600160a060020a0316602083015260028301549082015260039091015460ff80821615156060840152610100909104161515608082015291506006600083518152602081019190915260409081016000209060c0905190810160409081528254825260018301546020830152600283015490820152600382015460608201526004820154600160a060020a039081166080808401919091526005909301541660a0820152915082015115156108335760009250610875565b80518260400151106108485760009250610875565b8060600151431061085c5760009250610875565b806040015143116108705760009250610875565b600192505b5050919050565b6000868686868686604051958652602086019490945260408086019390935260608501919091526c01000000000000000000000000600160a060020a03918216810260808601529216909102609483015260a89091019051809103902090509695505050505050565b60056020526000908152604090208054600182015460028301546003909301549192600160a060020a039091169160ff8082169161010090041685565b600054600160a060020a031681565b610939610dad565b600060025411801561096c5750600160a060020a038216600090815260056020526040902060030154610100900460ff16155b15610a0557600154600354600254600160a060020a03928316926323b872dd92869291169060006040516020015260405160e060020a63ffffffff8616028152600160a060020a0393841660048201529190921660248201526044810191909152606401602060405180830381600087803b15156109e957600080fd5b6102c65a03f115156109fa57600080fd5b505050604051805150505b610a0e82610739565b15610a1857600080fd5b60016080820152610a2882610cd0565b815260066000825181526020810191909152604001600020541515610a4c57600080fd5b8130610a56610e24565b600160a060020a0392831681529116602082015260409081019051809103906000f0801515610a8457600080fd5b600160a060020a039081166020808401919091529083166000908152600590915260409020819081518155602082015160018201805473ffffffffffffffffffffffffffffffffffffffff1916600160a060020a039290921691909117905560408201518160020155606082015160038201805460ff19169115159190911790556080820151600390910180549115156101000261ff0019909216919091179055507fe9db4686ffcf478f0c9aa617f5d4f8ad2672b75414d7bea26368c6f65fb418df82604051600160a060020a03909116815260200160405180910390a15050565b600160a060020a03808216600090815260056020818152604080842054845260069091529091200154338216911614610b9f57600080fd5b600160a060020a03166000908152600560205260409020600301805460ff19166001179055565b60025481565b600154600160a060020a031681565b600160a060020a03808216600090815260056020818152604080842054845260069091529091200154338216911614610c1357600080fd5b600160a060020a03166000908152600560205260409020600301805460ff19169055565b60005433600160a060020a03908116911614610c5257600080fd5b600160a060020a03811615610c8a576000805473ffffffffffffffffffffffffffffffffffffffff1916600160a060020a0383161790555b50565b60045481565b600082821115610c9f57fe5b50900390565b6000828202831580610cc15750828482811515610cbe57fe5b04145b1515610cc957fe5b9392505050565b60008082600160a060020a0316638da5cb5b6000604051602001526040518163ffffffff1660e060020a028152600401602060405180830381600087803b1515610d1957600080fd5b6102c65a03f11515610d2a57600080fd5b5050506040518051915050600160a060020a0381166346e361b73060006040516020015260405160e060020a63ffffffff8416028152600160a060020a039091166004820152602401602060405180830381600087803b1515610d8c57600080fd5b6102c65a03f11515610d9d57600080fd5b5050506040518051949350505050565b60a0604051908101604090815260008083526020830181905290820181905260608201819052608082015290565b60c060405190810160405280600081526020016000815260200160008152602001600081526020016000600160a060020a031681526020016000600160a060020a031681525090565b60405161034e80610e358339019056006060604052341561000f57600080fd5b60405160408061034e833981016040528080519190602001805160008054600160a060020a03338116600160a060020a0319928316179092556001805496831696821696909617909555600280549190921694169390931790925550506102d38061007b6000396000f3006060604052600436106100775763ffffffff7c01000000000000000000000000000000000000000000000000000000006000350416631ebbede2811461012e57806323bd4d7a1461015d57806383197ef0146101705780638da5cb5b14610183578063f2fde38b14610196578063f5074f41146101b5575b34151561008357600080fd5b600254600154600160a060020a03918216916321bea7cc91349116336000604051602001526040517c010000000000000000000000000000000000000000000000000000000063ffffffff8616028152600160a060020a039283166004820152911660248201526044016020604051808303818588803b151561010557600080fd5b6125ee5a03f1151561011657600080fd5b5050505060405180511515905061012c57600080fd5b005b341561013957600080fd5b6101416101d4565b604051600160a060020a03909116815260200160405180910390f35b341561016857600080fd5b6101416101e3565b341561017b57600080fd5b61012c6101f2565b341561018e57600080fd5b61014161021b565b34156101a157600080fd5b61012c600160a060020a036004351661022a565b34156101c057600080fd5b61012c600160a060020a0360043516610280565b600254600160a060020a031681565b600154600160a060020a031681565b60005433600160a060020a0390811691161461020d57600080fd5b600054600160a060020a0316ff5b600054600160a060020a031681565b60005433600160a060020a0390811691161461024557600080fd5b600160a060020a0381161561027d576000805473ffffffffffffffffffffffffffffffffffffffff1916600160a060020a0383161790555b50565b60005433600160a060020a0390811691161461029b57600080fd5b80600160a060020a0316ff00a165627a7a723058200576b07cabfc448ac6b7322855c4a9d3c1ae7116a13f320d584f3e25113c674f0029a165627a7a72305820120acb9d9a5d6aa57ca80ef3ce8a589c7b690aa518192e0086004e7e1efa19d40029",
  "source": "pragma solidity ^0.4.18;\n\nimport \"./UniversalScheme.sol\";\nimport \"zeppelin-solidity/contracts/ownership/Ownable.sol\";\nimport \"zeppelin-solidity/contracts/math/SafeMath.sol\";\nimport \"zeppelin-solidity/contracts/lifecycle/Destructible.sol\";\n\n\n/**\n * @title An avatar contract for ICO.\n * @dev Allow people to donate by simply sending ether to an address.\n */\ncontract MirrorContractICO is Destructible {\n    Avatar public organization; // The organization address (the avatar)\n    SimpleICO public simpleICO;  // The ICO contract address\n\n    /**\n    * @dev Constructor, setting the organization and ICO scheme.\n    * @param _organization The organization's avatar.\n    * @param _simpleICO The ICO Scheme.\n    */\n    function MirrorContractICO(Avatar _organization, SimpleICO _simpleICO) public {\n        organization = _organization;\n        simpleICO = _simpleICO;\n    }\n\n    /**\n    * @dev Fallback function, when ether is sent it will donate to the ICO.\n    * The ether will be returned if the donation is failed.\n    */\n    function () public payable {\n        // Not to waste gas, if no value.\n        require(msg.value != 0);\n\n        // Return ether if couln't donate.\n        if (simpleICO.donate.value(msg.value)(organization, msg.sender) == 0) {\n            revert();\n        }\n    }\n}\n\n\n/**\n * @title SimpleICO scheme.\n * @dev A universal scheme to allow organizations to open a simple ICO and get donations.\n */\ncontract SimpleICO is UniversalScheme {\n    using SafeMath for uint;\n\n    // Struct holding the data for each organization\n    struct Organization {\n        bytes32 paramsHash; // Save the parameters approved by the org to open the ICO, so reules of ICO will not change.\n        address avatarContractICO; // Avatar is a contract for users that want to send eth without calling a funciton.\n        uint totalEthRaised;\n        bool isHalted; // The admin of the ICO can halt the ICO at any time, and also resume it.\n        bool isRegistered;\n    }\n\n    // A mapping from hashes to parameters (use to store a particular configuration on the controller)\n    struct Parameters {\n        uint cap; // Cap in Eth\n        uint price; // Price represents Tokens per 1 Eth\n        uint startBlock;\n        uint endBlock;\n        address beneficiary; // all funds received will be transffered to this address.\n        address admin; // The admin can halt or resume ICO.\n    }\n\n    // A mapping from the organization (Avatar) address to the saved data of the organization:\n    mapping(address=>Organization) public organizations;\n\n    mapping(bytes32=>Parameters) parameters;\n\n    event DonationReceived(address indexed organization, address indexed _beneficiary, uint _incomingEther, uint indexed _tokensAmount);\n\n    /**\n     * @dev Constructor, Updating the initial prarmeters\n     * @param _nativeToken The native token of the ICO\n     * @param _fee The fee for intiating the ICO\n     * @param _beneficiary The address that will receive the ethers\n     */\n    function SimpleICO(StandardToken _nativeToken, uint _fee, address _beneficiary) public {\n        updateParameters(_nativeToken, _fee, _beneficiary, bytes32(0));\n    }\n\n    /**\n     * @dev Hash the parameters, save them if necessary, and return the hash value\n     */\n    function setParameters(\n        uint _cap,\n        uint _price,\n        uint _startBlock,\n        uint _endBlock,\n        address _beneficiary,\n        address _admin\n    )\n        public\n        returns(bytes32)\n    {\n        bytes32 paramsHash = getParametersHash(\n            _cap,\n            _price,\n            _startBlock,\n            _endBlock,\n            _beneficiary,\n            _admin\n        );\n        if (parameters[paramsHash].cap != 0) {\n            parameters[paramsHash].cap = _cap;\n            parameters[paramsHash].price = _price;\n            parameters[paramsHash].startBlock = _startBlock;\n            parameters[paramsHash].endBlock = _endBlock;\n            parameters[paramsHash].beneficiary = _beneficiary;\n            parameters[paramsHash].admin = _admin;\n        }\n        return paramsHash;\n    }\n\n    /**\n     * @dev Calculate a hash of the given parameters.\n     * @return bytes32 Hash of the given parameters.\n     */\n    function getParametersHash(\n        uint _cap,\n        uint _price,\n        uint _startBlock,\n        uint _endBlock,\n        address _beneficiary,\n        address _admin\n    )\n        public\n        pure\n        returns(bytes32)\n   {\n        return (keccak256(\n            _cap,\n            _price,\n            _startBlock,\n            _endBlock,\n            _beneficiary,\n            _admin\n        ));\n    }\n\n    /**\n     * @dev Adding an organization to the universal scheme, and opens an ICO for it\n     * @param _avatar The Avatar's of the organization\n     */\n    function registerOrganization(Avatar _avatar) public {\n        // Pay fees for using scheme:\n        if ((fee > 0) && (! organizations[_avatar].isRegistered)) {\n            nativeToken.transferFrom(_avatar, beneficiary, fee);\n        }\n\n        // Check there is no ongoing ICO:\n        require(!isActiveICO(_avatar));\n\n        // Set the organization data:\n        Organization memory org;\n        org.isRegistered = true;\n        org.paramsHash = getParametersFromController(_avatar);\n        require(parameters[org.paramsHash].cap != 0);\n        org.avatarContractICO = new MirrorContractICO(_avatar, this);\n        organizations[_avatar] = org;\n        LogOrgRegistered(_avatar);\n    }\n\n    /**\n     * @dev Allowing admin to halt an ICO.\n     * @param _avatar The Avatar's of the organization\n     */\n    function haltICO(address _avatar) public {\n        require(msg.sender == parameters[organizations[_avatar].paramsHash].admin);\n        organizations[_avatar].isHalted = true;\n    }\n\n    /**\n     * @dev Allowing admin to reopen an ICO.\n     * @param _avatar The Avatar's of the organization\n     */\n    function resumeICO(address _avatar) public {\n        require(msg.sender == parameters[organizations[_avatar].paramsHash].admin);\n        organizations[_avatar].isHalted = false;\n    }\n\n    /**\n     * @dev Check is an ICO is active (halted is still considered active). Active ICO:\n     * 1. The organization is registered.\n     * 2. The ICO didn't reach it's cap yet.\n     * 3. The current block isn't bigger than the \"endBlock\" & Smaller then the \"startBlock\"\n     * @param _avatar The Avatar's of the organization\n     * @return bool which represents a successful of the function\n     */\n    function isActiveICO(address _avatar) public constant returns(bool) {\n        Organization memory org = organizations[_avatar];\n        Parameters memory params = parameters[org.paramsHash];\n        if (! org.isRegistered) {\n            return false;\n        }\n        if (org.totalEthRaised >= params.cap) {\n            return false;\n        }\n        if (block.number >= params.endBlock) {\n            return false;\n        }\n        if (block.number <= params.startBlock) {\n            return false;\n        }\n        return true;\n    }\n\n    /**\n     * @dev Donating ethers to get tokens.\n     * If the donation is higher than the remaining ethers in the \"cap\",\n     * The donator will get the change in ethers.\n     * @param _avatar The Avatar's of the organization.\n     * @param _beneficiary The donator's address - which will receive the ICO's tokens.\n     * @return bool which represents a successful of the function\n     */\n    function donate(Avatar _avatar, address _beneficiary) public payable returns(uint) {\n        Organization memory org = organizations[_avatar];\n        Parameters memory params = parameters[org.paramsHash];\n\n        // Check ICO is active:\n        require(isActiveICO(_avatar));\n\n        // Check ICO is not halted:\n        require(!org.isHalted);\n\n        uint incomingEther;\n        uint change;\n\n        // Compute how much tokens to buy:\n        if ( msg.value > (params.cap).sub(org.totalEthRaised) ) {\n            incomingEther = (params.cap).sub(org.totalEthRaised);\n            change = (msg.value).sub(incomingEther);\n        } else {\n            incomingEther = msg.value;\n        }\n        uint tokens = incomingEther.mul(params.price);\n\n        // Send ether to the defined address, mint, and send change to beneficiary:\n        params.beneficiary.transfer(incomingEther);\n        Controller controller = Controller(_avatar.owner());\n        if (!controller.mintTokens(tokens, _beneficiary)) {\n            revert();\n        }\n        if (change != 0) {\n            _beneficiary.transfer(change);\n        }\n\n        // Update total raised, call event and return amount of tokens bought:\n        org.totalEthRaised += incomingEther;\n        DonationReceived(_avatar, _beneficiary, incomingEther, tokens);\n        return tokens;\n    }\n\n    // If someone accidentally sends ether to this contract, revert;\n    function () public {\n        revert();\n    }\n}\n",
  "sourcePath": "/Users/tibet/Dev/Emergence/daostack/contracts/universalSchemes/SimpleICO.sol",
  "compiler": {
    "name": "solc",
    "version": "0.4.18+commit.9cf6e910.Emscripten.clang"
  },
  "schemaVersion": "1.0.1",
  "updatedAt": "2017-12-08T01:15:38.778Z"
}