{
  "contractName": "VestingScheme",
  "abi": [
    {
      "constant": true,
      "inputs": [
        {
          "name": "",
          "type": "bytes32"
        }
      ],
      "name": "parameters",
      "outputs": [
        {
          "name": "voteParams",
          "type": "bytes32"
        },
        {
          "name": "intVote",
          "type": "address"
        }
      ],
      "payable": false,
      "stateMutability": "view",
      "type": "function"
    },
    {
      "constant": true,
      "inputs": [
        {
          "name": "_voteParams",
          "type": "bytes32"
        },
        {
          "name": "_intVote",
          "type": "address"
        }
      ],
      "name": "getParametersHash",
      "outputs": [
        {
          "name": "",
          "type": "bytes32"
        }
      ],
      "payable": false,
      "stateMutability": "pure",
      "type": "function"
    },
    {
      "constant": false,
      "inputs": [
        {
          "name": "_proposalId",
          "type": "bytes32"
        },
        {
          "name": "_avatar",
          "type": "address"
        },
        {
          "name": "_param",
          "type": "int256"
        }
      ],
      "name": "execute",
      "outputs": [
        {
          "name": "",
          "type": "bool"
        }
      ],
      "payable": false,
      "stateMutability": "nonpayable",
      "type": "function"
    },
    {
      "constant": true,
      "inputs": [],
      "name": "beneficiary",
      "outputs": [
        {
          "name": "",
          "type": "address"
        }
      ],
      "payable": false,
      "stateMutability": "view",
      "type": "function"
    },
    {
      "constant": false,
      "inputs": [
        {
          "name": "_nativeToken",
          "type": "address"
        },
        {
          "name": "_fee",
          "type": "uint256"
        },
        {
          "name": "_beneficiary",
          "type": "address"
        },
        {
          "name": "_hashedParameters",
          "type": "bytes32"
        }
      ],
      "name": "updateParameters",
      "outputs": [],
      "payable": false,
      "stateMutability": "nonpayable",
      "type": "function"
    },
    {
      "constant": true,
      "inputs": [
        {
          "name": "",
          "type": "address"
        }
      ],
      "name": "organizations",
      "outputs": [
        {
          "name": "isRegistered",
          "type": "bool"
        }
      ],
      "payable": false,
      "stateMutability": "view",
      "type": "function"
    },
    {
      "constant": false,
      "inputs": [
        {
          "name": "_beneficiary",
          "type": "address"
        },
        {
          "name": "_returnOnCancelAddress",
          "type": "address"
        },
        {
          "name": "_startingBlock",
          "type": "uint256"
        },
        {
          "name": "_amountPerPeriod",
          "type": "uint256"
        },
        {
          "name": "_periodLength",
          "type": "uint256"
        },
        {
          "name": "_numOfAgreedPeriods",
          "type": "uint256"
        },
        {
          "name": "_cliffInPeriods",
          "type": "uint256"
        },
        {
          "name": "_signaturesReqToCancel",
          "type": "uint256"
        },
        {
          "name": "_signersArray",
          "type": "address[]"
        },
        {
          "name": "_avatar",
          "type": "address"
        }
      ],
      "name": "proposeVestingAgreement",
      "outputs": [
        {
          "name": "",
          "type": "bytes32"
        }
      ],
      "payable": false,
      "stateMutability": "nonpayable",
      "type": "function"
    },
    {
      "constant": false,
      "inputs": [
        {
          "name": "_voteParams",
          "type": "bytes32"
        },
        {
          "name": "_intVote",
          "type": "address"
        }
      ],
      "name": "setParameters",
      "outputs": [
        {
          "name": "",
          "type": "bytes32"
        }
      ],
      "payable": false,
      "stateMutability": "nonpayable",
      "type": "function"
    },
    {
      "constant": false,
      "inputs": [
        {
          "name": "_agreementId",
          "type": "uint256"
        }
      ],
      "name": "revokeSignToCancelAgreement",
      "outputs": [],
      "payable": false,
      "stateMutability": "nonpayable",
      "type": "function"
    },
    {
      "constant": false,
      "inputs": [
        {
          "name": "_agreementId",
          "type": "uint256"
        }
      ],
      "name": "signToCancelAgreement",
      "outputs": [],
      "payable": false,
      "stateMutability": "nonpayable",
      "type": "function"
    },
    {
      "constant": true,
      "inputs": [],
      "name": "owner",
      "outputs": [
        {
          "name": "",
          "type": "address"
        }
      ],
      "payable": false,
      "stateMutability": "view",
      "type": "function"
    },
    {
      "constant": false,
      "inputs": [
        {
          "name": "_avatar",
          "type": "address"
        }
      ],
      "name": "registerOrganization",
      "outputs": [],
      "payable": false,
      "stateMutability": "nonpayable",
      "type": "function"
    },
    {
      "constant": true,
      "inputs": [
        {
          "name": "",
          "type": "uint256"
        }
      ],
      "name": "agreements",
      "outputs": [
        {
          "name": "token",
          "type": "address"
        },
        {
          "name": "beneficiary",
          "type": "address"
        },
        {
          "name": "returnOnCancelAddress",
          "type": "address"
        },
        {
          "name": "startingBlock",
          "type": "uint256"
        },
        {
          "name": "amountPerPeriod",
          "type": "uint256"
        },
        {
          "name": "periodLength",
          "type": "uint256"
        },
        {
          "name": "numOfAgreedPeriods",
          "type": "uint256"
        },
        {
          "name": "cliffInPeriods",
          "type": "uint256"
        },
        {
          "name": "signaturesReqToCancel",
          "type": "uint256"
        },
        {
          "name": "collectedPeriods",
          "type": "uint256"
        },
        {
          "name": "signaturesReceivedCounter",
          "type": "uint256"
        }
      ],
      "payable": false,
      "stateMutability": "view",
      "type": "function"
    },
    {
      "constant": true,
      "inputs": [
        {
          "name": "_avatar",
          "type": "address"
        }
      ],
      "name": "isRegistered",
      "outputs": [
        {
          "name": "",
          "type": "bool"
        }
      ],
      "payable": false,
      "stateMutability": "view",
      "type": "function"
    },
    {
      "constant": false,
      "inputs": [
        {
          "name": "_agreementId",
          "type": "uint256"
        }
      ],
      "name": "collect",
      "outputs": [],
      "payable": false,
      "stateMutability": "nonpayable",
      "type": "function"
    },
    {
      "constant": true,
      "inputs": [],
      "name": "fee",
      "outputs": [
        {
          "name": "",
          "type": "uint256"
        }
      ],
      "payable": false,
      "stateMutability": "view",
      "type": "function"
    },
    {
      "constant": true,
      "inputs": [],
      "name": "nativeToken",
      "outputs": [
        {
          "name": "",
          "type": "address"
        }
      ],
      "payable": false,
      "stateMutability": "view",
      "type": "function"
    },
    {
      "constant": false,
      "inputs": [
        {
          "name": "newOwner",
          "type": "address"
        }
      ],
      "name": "transferOwnership",
      "outputs": [],
      "payable": false,
      "stateMutability": "nonpayable",
      "type": "function"
    },
    {
      "constant": false,
      "inputs": [
        {
          "name": "_token",
          "type": "address"
        },
        {
          "name": "_beneficiary",
          "type": "address"
        },
        {
          "name": "_returnOnCancelAddress",
          "type": "address"
        },
        {
          "name": "_startingBlock",
          "type": "uint256"
        },
        {
          "name": "_amountPerPeriod",
          "type": "uint256"
        },
        {
          "name": "_periodLength",
          "type": "uint256"
        },
        {
          "name": "_numOfAgreedPeriods",
          "type": "uint256"
        },
        {
          "name": "_cliffInPeriods",
          "type": "uint256"
        },
        {
          "name": "_signaturesReqToCancel",
          "type": "uint256"
        },
        {
          "name": "_signersArray",
          "type": "address[]"
        }
      ],
      "name": "createVestedAgreement",
      "outputs": [
        {
          "name": "",
          "type": "uint256"
        }
      ],
      "payable": false,
      "stateMutability": "nonpayable",
      "type": "function"
    },
    {
      "constant": true,
      "inputs": [],
      "name": "hashedParameters",
      "outputs": [
        {
          "name": "",
          "type": "bytes32"
        }
      ],
      "payable": false,
      "stateMutability": "view",
      "type": "function"
    },
    {
      "inputs": [
        {
          "name": "_nativeToken",
          "type": "address"
        },
        {
          "name": "_fee",
          "type": "uint256"
        },
        {
          "name": "_beneficiary",
          "type": "address"
        }
      ],
      "payable": false,
      "stateMutability": "nonpayable",
      "type": "constructor"
    },
    {
      "anonymous": false,
      "inputs": [
        {
          "indexed": true,
          "name": "_avatar",
          "type": "address"
        }
      ],
      "name": "LogRegisterOrg",
      "type": "event"
    },
    {
      "anonymous": false,
      "inputs": [
        {
          "indexed": true,
          "name": "_avatar",
          "type": "address"
        },
        {
          "indexed": false,
          "name": "_proposalId",
          "type": "bytes32"
        }
      ],
      "name": "LogAgreementProposal",
      "type": "event"
    },
    {
      "anonymous": false,
      "inputs": [
        {
          "indexed": true,
          "name": "_avatar",
          "type": "address"
        },
        {
          "indexed": false,
          "name": "_proposalId",
          "type": "bytes32"
        },
        {
          "indexed": false,
          "name": "_result",
          "type": "int256"
        }
      ],
      "name": "LogExecutaion",
      "type": "event"
    },
    {
      "anonymous": false,
      "inputs": [
        {
          "indexed": true,
          "name": "_agreementId",
          "type": "uint256"
        }
      ],
      "name": "LogNewVestedAgreenent",
      "type": "event"
    },
    {
      "anonymous": false,
      "inputs": [
        {
          "indexed": true,
          "name": "_agreementId",
          "type": "uint256"
        },
        {
          "indexed": true,
          "name": "_signer",
          "type": "address"
        }
      ],
      "name": "LogSignToCancelAgreement",
      "type": "event"
    },
    {
      "anonymous": false,
      "inputs": [
        {
          "indexed": true,
          "name": "_agreementId",
          "type": "uint256"
        },
        {
          "indexed": true,
          "name": "_signer",
          "type": "address"
        }
      ],
      "name": "LogRevokeSignToCancelAgreement",
      "type": "event"
    },
    {
      "anonymous": false,
      "inputs": [
        {
          "indexed": true,
          "name": "_agreementId",
          "type": "uint256"
        }
      ],
      "name": "LogAgreementCancel",
      "type": "event"
    },
    {
      "anonymous": false,
      "inputs": [
        {
          "indexed": true,
          "name": "_agreementId",
          "type": "uint256"
        }
      ],
      "name": "LogCollect",
      "type": "event"
    },
    {
      "anonymous": false,
      "inputs": [
        {
          "indexed": false,
          "name": "_avatar",
          "type": "address"
        }
      ],
      "name": "LogOrgRegistered",
      "type": "event"
    },
    {
      "anonymous": false,
      "inputs": [
        {
          "indexed": false,
          "name": "proposalId",
          "type": "bytes32"
        }
      ],
      "name": "LogNewProposal",
      "type": "event"
    }
  ],
  "bytecode": "0x6060604052341561000f57600080fd5b604051606080611f3483398101604052808051919060200180519190602001805160008054600160a060020a03191633600160a060020a031617815590925061006b91508490849084906401000000006100738102610ab91704565b5050506100c6565b60005433600160a060020a0390811691161461008e57600080fd5b60018054600160a060020a0319908116600160a060020a03968716179091556002939093556003805490931691909316179055600455565b611e5f806100d56000396000f3006060604052600436106100f85763ffffffff60e060020a6000350416630250680481146100fd5780632453732a14610134578063310ce4e21461016857806338af3eed146101a15780634345a610146101d05780635a1f7406146101fe57806367b603901461021d57806368e14dac146102a957806389d75221146102cb5780638b087f3f146102e15780638da5cb5b146102f757806390be003c1461030a578063bd14de9614610329578063c3c5a547146103a7578063ce3f865f146103c6578063ddca3f43146103dc578063e1758bd8146103ef578063f2fde38b14610402578063f76f3fb114610421578063f98e87ba146104a8575b600080fd5b341561010857600080fd5b6101136004356104bb565b604051918252600160a060020a031660208201526040908101905180910390f35b341561013f57600080fd5b610156600435600160a060020a03602435166104dd565b60405190815260200160405180910390f35b341561017357600080fd5b61018d600435600160a060020a0360243516604435610519565b604051901515815260200160405180910390f35b34156101ac57600080fd5b6101b4610aaa565b604051600160a060020a03909116815260200160405180910390f35b34156101db57600080fd5b6101fc600160a060020a036004358116906024359060443516606435610ab9565b005b341561020957600080fd5b61018d600160a060020a0360043516610b0c565b341561022857600080fd5b610156600160a060020a0360048035821691602480359091169160443591606435916084359160a4359160c4359160e43591906101249061010435908101908301358060208181020160405190810160405280939291908181526020018383602002808284375094965050509235600160a060020a03169250610b21915050565b34156102b457600080fd5b610156600435600160a060020a03602435166110dc565b34156102d657600080fd5b6101fc600435611124565b34156102ec57600080fd5b6101fc6004356111c4565b341561030257600080fd5b6101b4611280565b341561031557600080fd5b6101fc600160a060020a036004351661128f565b341561033457600080fd5b61033f6004356113c9565b604051600160a060020a039b8c168152998b1660208b0152979099166040808a01919091526060890196909652608088019490945260a087019290925260c086015260e085015261010084015261012083019390935261014082015261016001905180910390f35b34156103b257600080fd5b61018d600160a060020a0360043516611430565b34156103d157600080fd5b6101fc60043561144e565b34156103e757600080fd5b61015661169a565b34156103fa57600080fd5b6101b46116a0565b341561040d57600080fd5b6101fc600160a060020a03600435166116af565b341561042c57600080fd5b61015660048035600160a060020a0390811691602480358316926044351691606435916084359160a4359160c4359160e43591610104359190610144906101243590810190830135806020808202016040519081016040528093929190818152602001838360200280828437509496506116f895505050505050565b34156104b357600080fd5b6101566119c2565b60066020526000908152604090208054600190910154600160a060020a031682565b6000808383604051918252600160a060020a03166c01000000000000000000000000026020820152603401604051908190039020949350505050565b6000610523611d94565b60008060008033600160a060020a0316600660006105408b6119c8565b8152602081019190915260400160002060010154600160a060020a03161461056757600080fd5b87600160a060020a03167ff121f53b91542562889d6f7b9f02d6bca6f7141c143024d9dcb571024abb6f228a8960405191825260208201526040908101905180910390a2600160a060020a03881660009081526005602090815260408083208c84526001019091529081902090610160905190810160405290816000820160009054906101000a9004600160a060020a0316600160a060020a0316600160a060020a031681526020016001820160009054906101000a9004600160a060020a0316600160a060020a0316600160a060020a031681526020016002820160009054906101000a9004600160a060020a0316600160a060020a0316600160a060020a0316815260200160038201548152602001600482015481526020016005820154815260200160068201548152602001600782015481526020016008820154815260200160098201548152602001600c8201548152505094506005600089600160a060020a0316600160a060020a0316815260200190815260200160002060010160008a60001916600019168152602001908152602001600020600080820160006101000a815490600160a060020a0302191690556001820160006101000a815490600160a060020a0302191690556002820160006101000a815490600160a060020a0302191690556003820160009055600482016000905560058201600090556006820160009055600782016000905560088201600090556009820160009055600c82016000905550508660011415156107a45760019550610a9e565b87600160a060020a0316638da5cb5b6000604051602001526040518163ffffffff1660e060020a028152600401602060405180830381600087803b15156107ea57600080fd5b6102c65a03f115156107fb57600080fd5b5050506040518051905093506108208560c0015186608001519063ffffffff611aa516565b92508451600160a060020a03166370a082313060006040516020015260405160e060020a63ffffffff8416028152600160a060020a039091166004820152602401602060405180830381600087803b151561087a57600080fd5b6102c65a03f1151561088b57600080fd5b5050506040518051925050600160a060020a0384166310c5b328843060006040516020015260405160e060020a63ffffffff85160281526004810192909252600160a060020a03166024820152604401602060405180830381600087803b15156108f457600080fd5b6102c65a03f1151561090557600080fd5b50505060405180515085905051600160a060020a03166370a082313060006040516020015260405160e060020a63ffffffff8416028152600160a060020a039091166004820152602401602060405180830381600087803b151561096857600080fd5b6102c65a03f1151561097957600080fd5b5050506040518051915050818301811461098f57fe5b6008546000908152600760205260409020859081518154600160a060020a031916600160a060020a03919091161781556020820151600182018054600160a060020a031916600160a060020a03929092169190911790556040820151600282018054600160a060020a031916600160a060020a0392909216919091179055606082015181600301556080820151816004015560a0820151816005015560c0820151816006015560e0820151816007015561010082015181600801556101208201518160090155610140820151600c909101555060088054600181019091557f3729c0575365291a7e0a20990932585f491df164e151c0deb6e4fae6bc9e663460405160405180910390a2600195505b50505050509392505050565b600354600160a060020a031681565b60005433600160a060020a03908116911614610ad457600080fd5b60018054600160a060020a0319908116600160a060020a03968716179091556002939093556003805490931691909316179055600455565b60056020526000908152604090205460ff1681565b6000610b2b611e0a565b600160a060020a038316600090815260056020526040812054819060ff161515610b5457600080fd5b60066000610b61876119c8565b81526020810191909152604090810160002090805190810160405281548152600190910154600160a060020a03166020820190815290935051600160a060020a03166388737b5e60028551883060006040516020015260405160e060020a63ffffffff871602815260048101949094526024840192909252600160a060020a039081166044840152166064820152608401602060405180830381600087803b1515610c0b57600080fd5b6102c65a03f11515610c1c57600080fd5b50505060405180519250506020830151600160a060020a031663339e23d18360013360006040516020015260405160e060020a63ffffffff861602815260048101939093526024830191909152600160a060020a03166044820152606401602060405180830381600087803b1515610c9357600080fd5b6102c65a03f11515610ca457600080fd5b50505060405180519050508551871015610cba57fe5b5060005b8551811015610d3d57600160a060020a0385166000908152600560209081526040808320858452600190810190925282209091600a90910190888481518110610d0357fe5b90602001906020020151600160a060020a031681526020810191909152604001600020805460ff1916911515919091179055600101610cbe565b84600160a060020a031663e1758bd86000604051602001526040518163ffffffff1660e060020a028152600401602060405180830381600087803b1515610d8357600080fd5b6102c65a03f11515610d9457600080fd5b505050604051805190506005600087600160a060020a0316600160a060020a031681526020019081526020016000206001016000846000191660001916815260200190815260200160002060000160006101000a815481600160a060020a030219169083600160a060020a031602179055508d6005600087600160a060020a0316600160a060020a031681526020019081526020016000206001016000846000191660001916815260200190815260200160002060010160006101000a815481600160a060020a030219169083600160a060020a031602179055508c6005600087600160a060020a0316600160a060020a031681526020019081526020016000206001016000846000191660001916815260200190815260200160002060020160006101000a815481600160a060020a030219169083600160a060020a031602179055508b6005600087600160a060020a0316600160a060020a0316815260200190815260200160002060010160008460001916600019168152602001908152602001600020600301819055508a6005600087600160a060020a0316600160a060020a031681526020019081526020016000206001016000846000191660001916815260200190815260200160002060040181905550896005600087600160a060020a0316600160a060020a031681526020019081526020016000206001016000846000191660001916815260200190815260200160002060050181905550886005600087600160a060020a0316600160a060020a031681526020019081526020016000206001016000846000191660001916815260200190815260200160002060060181905550876005600087600160a060020a0316600160a060020a031681526020019081526020016000206001016000846000191660001916815260200190815260200160002060070181905550866005600087600160a060020a0316600160a060020a03168152602001908152602001600020600101600084600019166000191681526020019081526020016000206008018190555084600160a060020a03167f829775c7c14610e4ccd53086fdfc812d824654065dc0d529c88ad5a1d9c15e318360405190815260200160405180910390a2509c9b505050505050505050505050565b6000806110e984846104dd565b60008181526006602052604090208581556001018054600160a060020a038616600160a060020a031990911617905591508190505092915050565b6000818152600760209081526040808320600160a060020a0333168452600a01909152812054829060ff16151561115a57600080fd5b6000838152600760209081526040808320600160a060020a0333168452600b81019092529091205490925060ff16151561119357600080fd5b50600160a060020a0333166000908152600b820160205260409020805460ff19169055600c01805460001901905550565b6000818152600760209081526040808320600160a060020a0333168452600a01909152812054829060ff1615156111fa57600080fd5b6000838152600760209081526040808320600160a060020a0333168452600b81019092529091205490925060ff161561123257600080fd5b600160a060020a0333166000908152600b830160205260409020805460ff19166001908117909155600c83018054909101908190556008830154141561127b5761127b83611ad0565b505050565b600054600160a060020a031681565b611297611e21565b60006002541180156112c25750600160a060020a03821660009081526005602052604090205460ff16155b1561135b57600154600354600254600160a060020a03928316926323b872dd92869291169060006040516020015260405160e060020a63ffffffff8616028152600160a060020a0393841660048201529190921660248201526044810191909152606401602060405180830381600087803b151561133f57600080fd5b6102c65a03f1151561135057600080fd5b505050604051805150505b60018152600160a060020a038216600090815260056020526040902081908151815460ff1916901515179055507fe9db4686ffcf478f0c9aa617f5d4f8ad2672b75414d7bea26368c6f65fb418df82604051600160a060020a03909116815260200160405180910390a15050565b600760208190526000918252604090912080546001820154600283015460038401546004850154600586015460068701549787015460088801546009890154600c90990154600160a060020a039889169a978916999690981697949693959294919290918b565b600160a060020a031660009081526005602052604090205460ff1690565b611456611d94565b60008281526007602052604081206001015481908190859033600160a060020a0390811691161461148657600080fd5b6000868152600760205260409081902090610160905190810160409081528254600160a060020a039081168352600184015481166020840152600284015416908201526003820154606082015260048201546080820152600582015460a08201908152600683015460c0830152600783015460e083015260088301546101008301526009830154610120830152600c909201546101408201529550611547905161153b8760600151439063ffffffff611d5c16565b9063ffffffff611d6e16565b93508460e0015184101561155757fe5b8460c0015184106115835761157c8561012001518660c001519063ffffffff611d5c16565b925061159c565b611599856101200151859063ffffffff611d5c16565b92505b6000868152600760205260409020600901546115be908463ffffffff611d8516565b6000878152600760205260409020600901556115e56080860151849063ffffffff611aa516565b91508451600160a060020a031663a9059cbb86602001518460006040516020015260405160e060020a63ffffffff8516028152600160a060020a0390921660048301526024820152604401602060405180830381600087803b151561164957600080fd5b6102c65a03f1151561165a57600080fd5b5050506040518051905050857f4ceba015d961d93f1d6825703b730a8ba05619c005dfd8073aee773dc6725fbb60405160405180910390a2505050505050565b60025481565b600154600160a060020a031681565b60005433600160a060020a039081169116146116ca57600080fd5b600160a060020a038116156116f55760008054600160a060020a031916600160a060020a0383161790555b50565b6000808061170c898863ffffffff611aa516565b91508c600160a060020a03166323b872dd33308560006040516020015260405160e060020a63ffffffff8616028152600160a060020a0393841660048201529190921660248201526044810191909152606401602060405180830381600087803b151561177857600080fd5b6102c65a03f1151561178957600080fd5b50505060405180519050508c60076000600854815260200190815260200160002060000160006101000a815481600160a060020a030219169083600160a060020a031602179055508b60076000600854815260200190815260200160002060010160006101000a815481600160a060020a030219169083600160a060020a031602179055508a60076000600854815260200190815260200160002060020160006101000a815481600160a060020a030219169083600160a060020a03160217905550896007600060085481526020019081526020016000206003018190555088600760006008548152602001908152602001600020600401819055508760076000600854815260200190815260200160002060050181905550866007600060085481526020019081526020016000206006018190555085600760006008548152602001908152602001600020600701819055508460076000600854815260200190815260200160002060080181905550835185101561190457fe5b5060005b8351811015611973576001600760006008548152602001908152602001600020600a01600086848151811061193957fe5b90602001906020020151600160a060020a031681526020810191909152604001600020805460ff1916911515919091179055600101611908565b60088054600181019091557f3729c0575365291a7e0a20990932585f491df164e151c0deb6e4fae6bc9e663460405160405180910390a25050600854600019019b9a5050505050505050505050565b60045481565b60008082600160a060020a0316638da5cb5b6000604051602001526040518163ffffffff1660e060020a028152600401602060405180830381600087803b1515611a1157600080fd5b6102c65a03f11515611a2257600080fd5b5050506040518051915050600160a060020a0381166346e361b73060006040516020015260405160e060020a63ffffffff8416028152600160a060020a039091166004820152602401602060405180830381600087803b1515611a8457600080fd5b6102c65a03f11515611a9557600080fd5b5050506040518051949350505050565b6000828202831580611ac15750828482811515611abe57fe5b04145b1515611ac957fe5b9392505050565b611ad8611d94565b6000828152600760205260408082208291610160905190810160405290816000820160009054906101000a9004600160a060020a0316600160a060020a0316600160a060020a031681526020016001820160009054906101000a9004600160a060020a0316600160a060020a0316600160a060020a031681526020016002820160009054906101000a9004600160a060020a0316600160a060020a0316600160a060020a0316815260200160038201548152602001600482015481526020016005820154815260200160068201548152602001600782015481526020016008820154815260200160098201548152602001600c82015481525050925060076000858152602001908152602001600020600080820160006101000a815490600160a060020a0302191690556001820160006101000a815490600160a060020a0302191690556002820160006101000a815490600160a060020a0302191690556003820160009055600482016000905560058201600090556006820160009055600782016000905560088201600090556009820160009055600c8201600090555050611c928361012001518460c001519063ffffffff611d5c16565b9150611ca98360800151839063ffffffff611aa516565b90508251600160a060020a031663a9059cbb84604001518360006040516020015260405160e060020a63ffffffff8516028152600160a060020a0390921660048301526024820152604401602060405180830381600087803b1515611d0d57600080fd5b6102c65a03f11515611d1e57600080fd5b5050506040518051905050837f4016499ca917ca97a24e45e837c1aef655c0f84eef18c36493cf3191c961c83160405160405180910390a250505050565b600082821115611d6857fe5b50900390565b6000808284811515611d7c57fe5b04949350505050565b600082820183811015611ac957fe5b610160604051908101604052806000600160a060020a031681526020016000600160a060020a031681526020016000600160a060020a0316815260200160008152602001600081526020016000815260200160008152602001600081526020016000815260200160008152602001600081525090565b604080519081016040526000808252602082015290565b602060405190810160405260008152905600a165627a7a723058208ea9ec171c0461babdd01e43c2ccd2f32d90ca0da4bcd1b09825fb87c49a26540029",
  "source": "pragma solidity ^0.4.18;\n\nimport \"../VotingMachines/IntVoteInterface.sol\";\nimport \"./UniversalScheme.sol\";\n\n\n/**\n * @title A schme for vesting.\n * @dev Can be used without organization just as a vesting component.\n */\n\ncontract VestingScheme is UniversalScheme, ExecutableInterface {\n    using SafeMath for uint;\n\n    event LogRegisterOrg(address indexed _avatar);\n    event LogAgreementProposal(address indexed _avatar, bytes32 _proposalId);\n    event LogExecutaion(address indexed _avatar, bytes32 _proposalId, int _result);\n    event LogNewVestedAgreenent(uint indexed _agreementId);\n    event LogSignToCancelAgreement(uint indexed _agreementId, address indexed _signer);\n    event LogRevokeSignToCancelAgreement(uint indexed _agreementId, address indexed _signer);\n    event LogAgreementCancel(uint indexed _agreementId);\n    event LogCollect(uint indexed _agreementId);\n\n\n    // The data for each vesterd agreement:\n    struct Agreement {\n        StandardToken token;\n        address beneficiary;\n        address returnOnCancelAddress;\n        uint startingBlock;\n        uint amountPerPeriod;\n        uint periodLength;\n        uint numOfAgreedPeriods;\n        uint cliffInPeriods;\n        uint signaturesReqToCancel;\n        uint collectedPeriods;\n        mapping(address=>bool) signers;\n        mapping(address=>bool) signaturesReceived;\n        uint signaturesReceivedCounter;\n    }\n\n    // Struct holding the data for each organization\n    struct Organization {\n        bool isRegistered;\n        mapping(bytes32=>Agreement) proposals;\n    }\n\n    // A mapping from hashes to parameters (use to store a particular configuration on the controller)\n    struct Parameters {\n        bytes32 voteParams;\n        IntVoteInterface intVote;\n    }\n\n    // A mapping from thr organization (Avatar) address to the saved data of the organization:\n    mapping(address=>Organization) public organizations;\n\n    mapping(bytes32=>Parameters) public parameters;\n\n    mapping(uint=>Agreement) public agreements;\n\n    uint agreementsCounter;\n\n    // Modifier, only the signers on an agreement:\n    modifier onlySigner(uint _agreementId) {\n        require(agreements[_agreementId].signers[msg.sender]);\n        _;\n    }\n\n    // Modifier, only the beneficiary on an agreement:\n    modifier onlyBeneficiary(uint _agreementId) {\n        require(agreements[_agreementId].beneficiary == msg.sender);\n        _;\n    }\n\n    /**\n    * @dev the constructor takes a token address, fee and beneficiary\n    */\n    function VestingScheme(StandardToken _nativeToken, uint _fee, address _beneficiary) public {\n        updateParameters(_nativeToken, _fee, _beneficiary, bytes32(0));\n    }\n\n    /**\n    * @dev Constant function, hash the parameters, save them if necessary, and return the hash value\n    */\n    function setParameters(\n        bytes32 _voteParams,\n        IntVoteInterface _intVote\n    ) public returns(bytes32)\n    {\n        bytes32 paramsHash = getParametersHash(_voteParams, _intVote);\n        parameters[paramsHash].voteParams = _voteParams;\n        parameters[paramsHash].intVote = _intVote;\n        return paramsHash;\n    }\n\n    /**\n    * @dev Constant function, return a hash of the given parameters\n    */\n    function getParametersHash(\n        bytes32 _voteParams,\n        IntVoteInterface _intVote\n    ) public pure returns(bytes32)\n    {\n        bytes32 paramsHash = (keccak256(_voteParams, _intVote));\n        return paramsHash;\n    }\n\n    /**\n    * @dev Constant function, check if organization is registered.\n    */\n    function isRegistered(address _avatar) public constant returns(bool) {\n        return organizations[_avatar].isRegistered;\n    }\n\n    /**\n    * @dev registering an organization to the univarsal scheme.\n    * @param _avatar avatar of the organization\n    */\n    function registerOrganization(Avatar _avatar) public {\n        // Pay fees for using scheme:\n        if ((fee > 0) && (! organizations[_avatar].isRegistered)) {\n            nativeToken.transferFrom(_avatar, beneficiary, fee);\n        }\n\n        Organization memory org;\n        org.isRegistered = true;\n        organizations[_avatar] = org;\n        LogOrgRegistered(_avatar);\n    }\n\n    /**\n    * @dev Proposing a vesting agreement in an organization.\n    * @param _beneficiary the beneficiary of the agreement.\n    * @param _returnOnCancelAddress where to send the tokens in case of stoping.\n    * @param _startingBlock the block from which the agreement starts.\n    * @param _amountPerPeriod amount of tokens per period.\n    * @param _periodLength period length in blocks.\n    * @param _numOfAgreedPeriods how many periods agreed on.\n    * @param _cliffInPeriods the length of the cliff in periods.\n    * @param _signaturesReqToCancel number of signatures required to cancel agreement.\n    * @param _signersArray avatar array of adresses that can sign to cancel agreement.\n    * @param _avatar avatar of the organization.\n    */\n    function proposeVestingAgreement(\n        address _beneficiary,\n        address _returnOnCancelAddress,\n        uint _startingBlock,\n        uint _amountPerPeriod,\n        uint _periodLength,\n        uint _numOfAgreedPeriods,\n        uint _cliffInPeriods,\n        uint _signaturesReqToCancel,\n        address[] _signersArray,\n        Avatar _avatar\n    )\n    public\n    returns(bytes32)\n    {\n        // Require registered org and get parameters:\n        require(organizations[_avatar].isRegistered);\n\n        // Open voting:\n        Parameters memory params = parameters[getParametersFromController(_avatar)];\n        bytes32 proposalId = params.intVote.propose(2, params.voteParams, _avatar, ExecutableInterface(this));\n        params.intVote.ownerVote(proposalId, 1, msg.sender); // Automatically votes `yes` in the name of the opener.\n\n        // Write the signers mapping:\n        assert(_signaturesReqToCancel >= _signersArray.length);\n        for (uint cnt = 0; cnt<_signersArray.length; cnt++) {\n            organizations[_avatar].proposals[proposalId].signers[_signersArray[cnt]] = true;\n        }\n\n        // Write parameters:\n        organizations[_avatar].proposals[proposalId].token = Avatar(_avatar).nativeToken();\n        organizations[_avatar].proposals[proposalId].beneficiary = _beneficiary;\n        organizations[_avatar].proposals[proposalId].returnOnCancelAddress = _returnOnCancelAddress;\n        organizations[_avatar].proposals[proposalId].startingBlock = _startingBlock;\n        organizations[_avatar].proposals[proposalId].amountPerPeriod = _amountPerPeriod;\n        organizations[_avatar].proposals[proposalId].periodLength = _periodLength;\n        organizations[_avatar].proposals[proposalId].numOfAgreedPeriods = _numOfAgreedPeriods;\n        organizations[_avatar].proposals[proposalId].cliffInPeriods = _cliffInPeriods;\n        organizations[_avatar].proposals[proposalId].signaturesReqToCancel = _signaturesReqToCancel;\n\n        // Log:\n        LogAgreementProposal(_avatar, proposalId);\n        return proposalId;\n    }\n\n    /**\n    * @dev execution of proposals, can only be called by the voting machine in which the vote is held.\n    * @param _proposalId the ID of the voting in the voting machine\n    * @param _avatar address of the controller\n    * @param _param a parameter of the voting result, 0 is no and 1 is yes.\n    */\n    function execute(bytes32 _proposalId, address _avatar, int _param) public returns(bool) {\n        // Check the caller is indeed the voting machine:\n        require(parameters[getParametersFromController(Avatar(_avatar))].intVote == msg.sender);\n\n        // Log execition:\n        LogExecutaion(_avatar, _proposalId, _param);\n\n        Agreement memory proposedAgreement = organizations[_avatar].proposals[_proposalId];\n        delete organizations[_avatar].proposals[_proposalId];\n\n        // Check if vote was successful:\n        if (_param != 1) {\n            // ToDo: log\n            return true;\n        }\n\n        // Define controller and mint tokens, check minting actually took place:\n        Controller controller = Controller(Avatar(_avatar).owner());\n        uint tokensToMint = proposedAgreement.amountPerPeriod.mul(proposedAgreement.numOfAgreedPeriods);\n        uint schemeBalanceBefore = proposedAgreement.token.balanceOf(this);\n        controller.mintTokens(tokensToMint, this);\n        uint schemeBalanceAfter = proposedAgreement.token.balanceOf(this);\n        assert(schemeBalanceBefore + tokensToMint == schemeBalanceAfter);\n        agreements[agreementsCounter] = proposedAgreement;\n        agreementsCounter++;\n\n        // Log the new agreement:\n        LogNewVestedAgreenent(agreementsCounter-1);\n        return true;\n    }\n\n    /**\n    * @dev Creating a vesting agreement.\n    * @param _token the relevant token in the agreement.\n    * @param _beneficiary the beneficiary of the agreement.\n    * @param _returnOnCancelAddress where to send the tokens in case of stoping.\n    * @param _startingBlock the block from which the agreement starts.\n    * @param _amountPerPeriod amount of tokens per period.\n    * @param _periodLength period length in blocks.\n    * @param _numOfAgreedPeriods how many periods agreed on.\n    * @param _cliffInPeriods the length of the cliff in periods.\n    * @param _signaturesReqToCancel number of signatures required to cancel agreement.\n    * @param _signersArray avatar array of adresses that can sign to cancel agreement.\n    */\n    function createVestedAgreement(\n        StandardToken _token,\n        address _beneficiary,\n        address _returnOnCancelAddress,\n        uint _startingBlock,\n        uint _amountPerPeriod,\n        uint _periodLength,\n        uint _numOfAgreedPeriods,\n        uint _cliffInPeriods,\n        uint _signaturesReqToCancel,\n        address[] _signersArray\n    )\n        public\n        returns(uint)\n    {\n        // Collect funds:\n        uint totalAmount = _amountPerPeriod.mul(_numOfAgreedPeriods);\n        _token.transferFrom(msg.sender, this, totalAmount);\n\n        // Write parameters:\n        agreements[agreementsCounter].token = _token;\n        agreements[agreementsCounter].beneficiary = _beneficiary;\n        agreements[agreementsCounter].returnOnCancelAddress = _returnOnCancelAddress;\n        agreements[agreementsCounter].startingBlock = _startingBlock;\n        agreements[agreementsCounter].amountPerPeriod = _amountPerPeriod;\n        agreements[agreementsCounter].periodLength = _periodLength;\n        agreements[agreementsCounter].numOfAgreedPeriods = _numOfAgreedPeriods;\n        agreements[agreementsCounter].cliffInPeriods = _cliffInPeriods;\n        agreements[agreementsCounter].signaturesReqToCancel = _signaturesReqToCancel;\n\n        // Write the signers mapping:\n        assert(_signaturesReqToCancel >= _signersArray.length);\n        for (uint cnt = 0; cnt<_signersArray.length; cnt++) {\n            agreements[agreementsCounter].signers[_signersArray[cnt]] = true;\n        }\n\n        // Increment the agreements counter:\n        agreementsCounter++;\n\n        // Log new agreement and return id:\n        LogNewVestedAgreenent(agreementsCounter-1);\n        return(agreementsCounter-1);\n    }\n\n    /**\n    * @dev Function to sign to cancel an agreement.\n    * @param _agreementId the relevant agreement.\n    */\n    function signToCancelAgreement(uint _agreementId) public onlySigner(_agreementId) {\n        Agreement storage agreement = agreements[_agreementId];\n\n        // Check attempt to double sign:\n        require(! agreement.signaturesReceived[msg.sender]);\n\n        // Sign:\n        agreement.signaturesReceived[msg.sender] = true;\n        agreement.signaturesReceivedCounter++;\n\n        // ToDo: Log\n\n        // Check if threshhold crossed:\n        if (agreement.signaturesReceivedCounter == agreement.signaturesReqToCancel) {\n            cancelAgreement(_agreementId);\n        }\n    }\n\n    /**\n    * @dev Function to revoke vote for canceling agreement.\n    * @param _agreementId the relevant agreement.\n    */\n    function revokeSignToCancelAgreement(uint _agreementId) public onlySigner(_agreementId) {\n        Agreement storage agreement = agreements[_agreementId];\n\n        // Check signer did sign:\n        require(agreement.signaturesReceived[msg.sender]);\n\n        // Revoke signature:\n        agreement.signaturesReceived[msg.sender] = false;\n        agreement.signaturesReceivedCounter--;\n\n        // ToDo: Log\n    }\n\n    /**\n    * @dev Function for a beneficiary to collect.\n    * @param _agreementId the relevant agreement.\n    */\n    function collect(uint _agreementId) public onlyBeneficiary(_agreementId) {\n        Agreement memory agreement = agreements[_agreementId];\n        uint periodsFromStartingBlock = (block.number.sub(agreement.startingBlock)).div(agreement.periodLength);\n        assert(periodsFromStartingBlock >= agreement.cliffInPeriods);\n\n        // Compute periods to pay:\n        uint periodsToPay;\n        if (periodsFromStartingBlock >= agreement.numOfAgreedPeriods) {\n            periodsToPay = agreement.numOfAgreedPeriods.sub(agreement.collectedPeriods);\n        } else {\n            periodsToPay = periodsFromStartingBlock.sub(agreement.collectedPeriods);\n        }\n        // Update periods paid:\n        agreements[_agreementId].collectedPeriods = agreements[_agreementId].collectedPeriods.add(periodsToPay);\n\n        // Transfer:\n        uint tokensToTransfer = periodsToPay.mul(agreement.amountPerPeriod);\n        agreement.token.transfer(agreement.beneficiary, tokensToTransfer);\n\n        // Log collecing:\n        LogCollect(_agreementId);\n    }\n\n    /**\n    * @dev Internal function, to cancel an agreement.\n    * @param _agreementId the relevant agreement.\n    */\n    function cancelAgreement(uint _agreementId) internal {\n        Agreement memory agreement = agreements[_agreementId];\n        delete  agreements[_agreementId];\n        uint periodsLeft = agreement.numOfAgreedPeriods.sub(agreement.collectedPeriods);\n        uint tokensLeft = periodsLeft.mul(agreement.amountPerPeriod);\n        agreement.token.transfer(agreement.returnOnCancelAddress, tokensLeft);\n\n        // Log canceling agreement:\n        LogAgreementCancel(_agreementId);\n    }\n}\n",
  "sourcePath": "/Users/tibet/Dev/Emergence/daostack/contracts/universalSchemes/VestingScheme.sol",
  "compiler": {
    "name": "solc",
    "version": "0.4.18+commit.9cf6e910.Emscripten.clang"
  },
  "schemaVersion": "1.0.1",
  "updatedAt": "2017-12-08T01:15:38.806Z"
}